{
  "contractName": "tic",
  "abi": [
    {
      "constant": true,
      "inputs": [],
      "name": "owner",
      "outputs": [
        {
          "name": "",
          "type": "address"
        }
      ],
      "payable": false,
      "stateMutability": "view",
      "type": "function"
    },
    {
      "constant": true,
      "inputs": [],
      "name": "cm",
      "outputs": [
        {
          "name": "",
          "type": "uint8"
        }
      ],
      "payable": false,
      "stateMutability": "view",
      "type": "function"
    },
    {
      "constant": true,
      "inputs": [],
      "name": "games",
      "outputs": [
        {
          "name": "",
          "type": "uint8"
        }
      ],
      "payable": false,
      "stateMutability": "view",
      "type": "function"
    },
    {
      "inputs": [],
      "payable": false,
      "stateMutability": "nonpayable",
      "type": "constructor"
    },
    {
      "constant": true,
      "inputs": [],
      "name": "getBalance",
      "outputs": [
        {
          "name": "",
          "type": "uint256"
        }
      ],
      "payable": false,
      "stateMutability": "view",
      "type": "function"
    },
    {
      "constant": true,
      "inputs": [],
      "name": "printPlayers",
      "outputs": [
        {
          "name": "",
          "type": "address"
        },
        {
          "name": "",
          "type": "address"
        }
      ],
      "payable": false,
      "stateMutability": "view",
      "type": "function"
    },
    {
      "constant": true,
      "inputs": [],
      "name": "turn",
      "outputs": [
        {
          "name": "",
          "type": "address"
        }
      ],
      "payable": false,
      "stateMutability": "view",
      "type": "function"
    },
    {
      "constant": false,
      "inputs": [],
      "name": "joinGame",
      "outputs": [],
      "payable": true,
      "stateMutability": "payable",
      "type": "function"
    },
    {
      "constant": false,
      "inputs": [],
      "name": "startNewGame",
      "outputs": [],
      "payable": false,
      "stateMutability": "nonpayable",
      "type": "function"
    },
    {
      "constant": true,
      "inputs": [],
      "name": "printBoard",
      "outputs": [
        {
          "name": "",
          "type": "string"
        }
      ],
      "payable": false,
      "stateMutability": "view",
      "type": "function"
    },
    {
      "constant": true,
      "inputs": [
        {
          "name": "y",
          "type": "uint8"
        }
      ],
      "name": "printrow",
      "outputs": [
        {
          "name": "",
          "type": "string"
        }
      ],
      "payable": false,
      "stateMutability": "view",
      "type": "function"
    },
    {
      "constant": true,
      "inputs": [
        {
          "name": "x",
          "type": "uint8"
        },
        {
          "name": "y",
          "type": "uint8"
        }
      ],
      "name": "tostring",
      "outputs": [
        {
          "name": "",
          "type": "string"
        }
      ],
      "payable": false,
      "stateMutability": "view",
      "type": "function"
    },
    {
      "constant": false,
      "inputs": [
        {
          "name": "x",
          "type": "uint8"
        },
        {
          "name": "y",
          "type": "uint8"
        }
      ],
      "name": "Move",
      "outputs": [],
      "payable": false,
      "stateMutability": "nonpayable",
      "type": "function"
    },
    {
      "constant": true,
      "inputs": [
        {
          "name": "x",
          "type": "uint8"
        },
        {
          "name": "y",
          "type": "uint8"
        }
      ],
      "name": "InBounds",
      "outputs": [
        {
          "name": "",
          "type": "bool"
        }
      ],
      "payable": false,
      "stateMutability": "pure",
      "type": "function"
    },
    {
      "constant": true,
      "inputs": [],
      "name": "player",
      "outputs": [
        {
          "name": "",
          "type": "uint8"
        }
      ],
      "payable": false,
      "stateMutability": "view",
      "type": "function"
    },
    {
      "constant": true,
      "inputs": [],
      "name": "getCurrAdd",
      "outputs": [
        {
          "name": "",
          "type": "address"
        }
      ],
      "payable": false,
      "stateMutability": "view",
      "type": "function"
    },
    {
      "constant": false,
      "inputs": [],
      "name": "over",
      "outputs": [
        {
          "name": "",
          "type": "bool"
        }
      ],
      "payable": false,
      "stateMutability": "nonpayable",
      "type": "function"
    },
    {
      "constant": false,
      "inputs": [],
      "name": "declareWinner",
      "outputs": [],
      "payable": false,
      "stateMutability": "nonpayable",
      "type": "function"
    },
    {
      "constant": true,
      "inputs": [],
      "name": "Winner",
      "outputs": [
        {
          "name": "",
          "type": "uint8"
        }
      ],
      "payable": false,
      "stateMutability": "view",
      "type": "function"
    },
    {
      "constant": true,
      "inputs": [],
      "name": "FinalWinner",
      "outputs": [
        {
          "name": "",
          "type": "address"
        }
      ],
      "payable": false,
      "stateMutability": "view",
      "type": "function"
    }
  ],
  "bytecode": "0x60806040523480156200001157600080fd5b5060008033600260006101000a81548173ffffffffffffffffffffffffffffffffffffffff021916908373ffffffffffffffffffffffffffffffffffffffff16021790555060008060006101000a81548160ff021916908360ff16021790555060008060016101000a81548160ff021916908360ff160217905550600091505b60038260ff1610156200011c57600090505b60038160ff1610156200010e57600060038360ff16600381101515620000c557fe5b018260ff16600381101515620000d757fe5b602091828204019190066101000a81548160ff02191690836002811115620000fb57fe5b02179055508080600101915050620000a3565b818060010192505062000091565b5050611ff4806200012e6000396000f300608060405260043610610107576000357c0100000000000000000000000000000000000000000000000000000000900463ffffffff16806312065fe01461010c57806314034bd21461013757806329a205d21461014e578063354819cb146101a557806345742b081461024e578063482d51e0146102a357806348db5f89146102ba578063750b5d17146102f357806379134f7a146103a95780637eaef50c146104005780638b2999031461042f5780638da5cb5b1461048657806393181620146104dd578063945498651461050e578063955a015b1461059e578063a1d191cb146105cf578063b2b98ed21461060c578063b5ad19e714610645578063d4f77b1c146106cf575b600080fd5b34801561011857600080fd5b506101216106d9565b6040518082815260200191505060405180910390f35b34801561014357600080fd5b5061014c6106f8565b005b34801561015a57600080fd5b50610163610932565b604051808273ffffffffffffffffffffffffffffffffffffffff1673ffffffffffffffffffffffffffffffffffffffff16815260200191505060405180910390f35b3480156101b157600080fd5b506101d3600480360381019080803560ff169060200190929190505050610bc3565b6040518080602001828103825283818151815260200191508051906020019080838360005b838110156102135780820151818401526020810190506101f8565b50505050905090810190601f1680156102405780820380516001836020036101000a031916815260200191505b509250505060405180910390f35b34801561025a57600080fd5b50610289600480360381019080803560ff169060200190929190803560ff169060200190929190505050610d51565b604051808215151515815260200191505060405180910390f35b3480156102af57600080fd5b506102b8610d90565b005b3480156102c657600080fd5b506102cf610e9b565b604051808260028111156102df57fe5b60ff16815260200191505060405180910390f35b3480156102ff57600080fd5b5061032e600480360381019080803560ff169060200190929190803560ff169060200190929190505050610f6c565b6040518080602001828103825283818151815260200191508051906020019080838360005b8381101561036e578082015181840152602081019050610353565b50505050905090810190601f16801561039b5780820380516001836020036101000a031916815260200191505b509250505060405180910390f35b3480156103b557600080fd5b506103be611130565b604051808273ffffffffffffffffffffffffffffffffffffffff1673ffffffffffffffffffffffffffffffffffffffff16815260200191505060405180910390f35b34801561040c57600080fd5b50610415611138565b604051808215151515815260200191505060405180910390f35b34801561043b57600080fd5b50610444611197565b604051808273ffffffffffffffffffffffffffffffffffffffff1673ffffffffffffffffffffffffffffffffffffffff16815260200191505060405180910390f35b34801561049257600080fd5b5061049b611304565b604051808273ffffffffffffffffffffffffffffffffffffffff1673ffffffffffffffffffffffffffffffffffffffff16815260200191505060405180910390f35b3480156104e957600080fd5b506104f261132a565b604051808260ff1660ff16815260200191505060405180910390f35b34801561051a57600080fd5b5061052361133d565b6040518080602001828103825283818151815260200191508051906020019080838360005b83811015610563578082015181840152602081019050610548565b50505050905090810190601f1680156105905780820380516001836020036101000a031916815260200191505b509250505060405180910390f35b3480156105aa57600080fd5b506105b36114ee565b604051808260ff1660ff16815260200191505060405180910390f35b3480156105db57600080fd5b5061060a600480360381019080803560ff169060200190929190803560ff169060200190929190505050611500565b005b34801561061857600080fd5b5061062161164c565b6040518082600281111561063157fe5b60ff16815260200191505060405180910390f35b34801561065157600080fd5b5061065a611d36565b604051808373ffffffffffffffffffffffffffffffffffffffff1673ffffffffffffffffffffffffffffffffffffffff1681526020018273ffffffffffffffffffffffffffffffffffffffff1673ffffffffffffffffffffffffffffffffffffffff1681526020019250505060405180910390f35b6106d7611d87565b005b60003073ffffffffffffffffffffffffffffffffffffffff1631905090565b6001600281111561070557fe5b61070d61164c565b600281111561071857fe5b141561079057600060029054906101000a900473ffffffffffffffffffffffffffffffffffffffff1673ffffffffffffffffffffffffffffffffffffffff166108fc671bc16d674ec800009081150290604051600060405180830381858888f1935050505015801561078e573d6000803e3d6000fd5b505b60028081111561079c57fe5b6107a461164c565b60028111156107af57fe5b141561082757600160009054906101000a900473ffffffffffffffffffffffffffffffffffffffff1673ffffffffffffffffffffffffffffffffffffffff166108fc671bc16d674ec800009081150290604051600060405180830381858888f19350505050158015610825573d6000803e3d6000fd5b505b6000600281111561083457fe5b61083c61164c565b600281111561084757fe5b141561093057600260009054906101000a900473ffffffffffffffffffffffffffffffffffffffff1673ffffffffffffffffffffffffffffffffffffffff166108fc670de0b6b3a76400009081150290604051600060405180830381858888f193505050501580156108bd573d6000803e3d6000fd5b50600260009054906101000a900473ffffffffffffffffffffffffffffffffffffffff1673ffffffffffffffffffffffffffffffffffffffff166108fc670de0b6b3a76400009081150290604051600060405180830381858888f1935050505015801561092e573d6000803e3d6000fd5b505b565b600060036000809054906101000a900460ff1660ff1614151561095457600080fd5b600160009054906101000a900473ffffffffffffffffffffffffffffffffffffffff1673ffffffffffffffffffffffffffffffffffffffff1631600060029054906101000a900473ffffffffffffffffffffffffffffffffffffffff1673ffffffffffffffffffffffffffffffffffffffff163110158015610a485750600260009054906101000a900473ffffffffffffffffffffffffffffffffffffffff1673ffffffffffffffffffffffffffffffffffffffff1631600060029054906101000a900473ffffffffffffffffffffffffffffffffffffffff1673ffffffffffffffffffffffffffffffffffffffff163110155b15610a7757600060029054906101000a900473ffffffffffffffffffffffffffffffffffffffff169050610bc0565b600060029054906101000a900473ffffffffffffffffffffffffffffffffffffffff1673ffffffffffffffffffffffffffffffffffffffff1631600160009054906101000a900473ffffffffffffffffffffffffffffffffffffffff1673ffffffffffffffffffffffffffffffffffffffff163110158015610b6b5750600260009054906101000a900473ffffffffffffffffffffffffffffffffffffffff1673ffffffffffffffffffffffffffffffffffffffff1631600160009054906101000a900473ffffffffffffffffffffffffffffffffffffffff1673ffffffffffffffffffffffffffffffffffffffff163110155b15610b9a57600160009054906101000a900473ffffffffffffffffffffffffffffffffffffffff169050610bc0565b600260009054906101000a900473ffffffffffffffffffffffffffffffffffffffff1690505b90565b6060610bd0600083610f6c565b610bdb600184610f6c565b610be6600285610f6c565b6040516020018084805190602001908083835b602083101515610c1e5780518252602082019150602081019050602083039250610bf9565b6001836020036101000a038019825116818451168082178552505050505050905001807f7c0000000000000000000000000000000000000000000000000000000000000081525060010183805190602001908083835b602083101515610c995780518252602082019150602081019050602083039250610c74565b6001836020036101000a038019825116818451168082178552505050505050905001807f7c0000000000000000000000000000000000000000000000000000000000000081525060010182805190602001908083835b602083101515610d145780518252602082019150602081019050602083039250610cef565b6001836020036101000a03801982511681845116808217855250505050505090500193505050506040516020818303038152906040529050919050565b6000808360ff1610158015610d69575060038360ff16105b8015610d79575060008260ff1610155b8015610d88575060038260ff16105b905092915050565b600080610d9b611138565b1515610da657600080fd5b60036000809054906101000a900460ff1660ff16101515610dc657600080fd5b60008060016101000a81548160ff021916908360ff16021790555060016000808282829054906101000a900460ff160192506101000a81548160ff021916908360ff160217905550600091505b60038260ff161015610e9757600090505b60038160ff161015610e8a57600060038360ff16600381101515610e4457fe5b018260ff16600381101515610e5557fe5b602091828204019190066101000a81548160ff02191690836002811115610e7857fe5b02179055508080600101915050610e24565b8180600101925050610e13565b5050565b60008060029054906101000a900473ffffffffffffffffffffffffffffffffffffffff1673ffffffffffffffffffffffffffffffffffffffff16610edd611130565b73ffffffffffffffffffffffffffffffffffffffff161415610f025760019050610f69565b600160009054906101000a900473ffffffffffffffffffffffffffffffffffffffff1673ffffffffffffffffffffffffffffffffffffffff16610f43611130565b73ffffffffffffffffffffffffffffffffffffffff161415610f685760029050610f69565b5b90565b606060016002811115610f7b57fe5b60038460ff16600381101515610f8d57fe5b018360ff16600381101515610f9e57fe5b602091828204019190069054906101000a900460ff166002811115610fbf57fe5b1415611002576040805190810160405280600181526020017f5800000000000000000000000000000000000000000000000000000000000000815250905061112a565b60028081111561100e57fe5b60038460ff1660038110151561102057fe5b018360ff1660038110151561103157fe5b602091828204019190069054906101000a900460ff16600281111561105257fe5b1415611095576040805190810160405280600181526020017f4f00000000000000000000000000000000000000000000000000000000000000815250905061112a565b600060028111156110a257fe5b60038460ff166003811015156110b457fe5b018360ff166003811015156110c557fe5b602091828204019190069054906101000a900460ff1660028111156110e657fe5b1415611129576040805190810160405280600181526020017f2000000000000000000000000000000000000000000000000000000000000000815250905061112a565b5b92915050565b600033905090565b60006009600060019054906101000a900460ff1660ff16148061117957506000600281111561116357fe5b61116b61164c565b600281111561117657fe5b14155b1561118f576111866106f8565b60019050611194565b600090505b90565b6000806000809054906101000a900460ff1660ff1614806111c9575060016000809054906101000a900460ff1660ff16145b1561124c5760006002600060019054906101000a900460ff1660ff168115156111ee57fe5b0660ff16141561122257600060029054906101000a900473ffffffffffffffffffffffffffffffffffffffff169050611301565b600160009054906101000a900473ffffffffffffffffffffffffffffffffffffffff169050611301565b60026000809054906101000a900460ff1660ff16148061127d575060036000809054906101000a900460ff1660ff16145b156113005760006002600060019054906101000a900460ff1660ff168115156112a257fe5b0660ff1614156112d657600160009054906101000a900473ffffffffffffffffffffffffffffffffffffffff169050611301565b600060029054906101000a900473ffffffffffffffffffffffffffffffffffffffff169050611301565b5b90565b600260009054906101000a900473ffffffffffffffffffffffffffffffffffffffff1681565b600060019054906101000a900460ff1681565b60606113496000610bc3565b6113536001610bc3565b61135d6002610bc3565b60405160200180807f0a0000000000000000000000000000000000000000000000000000000000000081525060010184805190602001908083835b6020831015156113bd5780518252602082019150602081019050602083039250611398565b6001836020036101000a038019825116818451168082178552505050505050905001807f0a0000000000000000000000000000000000000000000000000000000000000081525060010183805190602001908083835b6020831015156114385780518252602082019150602081019050602083039250611413565b6001836020036101000a038019825116818451168082178552505050505050905001807f0a0000000000000000000000000000000000000000000000000000000000000081525060010182805190602001908083835b6020831015156114b3578051825260208201915060208101905060208303925061148e565b6001836020036101000a0380198251168184511680821785525050505050509050019350505050604051602081830303815290604052905090565b6000809054906101000a900460ff1681565b61150a8282610d51565b151561151557600080fd5b61151d611138565b15151561152957600080fd5b3373ffffffffffffffffffffffffffffffffffffffff16611548611197565b73ffffffffffffffffffffffffffffffffffffffff1614151561156a57600080fd5b6000600281111561157757fe5b60038360ff1660038110151561158957fe5b018260ff1660038110151561159a57fe5b602091828204019190069054906101000a900460ff1660028111156115bb57fe5b1415156115c757600080fd5b6115cf610e9b565b60038360ff166003811015156115e157fe5b018260ff166003811015156115f257fe5b602091828204019190066101000a81548160ff0219169083600281111561161557fe5b02179055506001600060018282829054906101000a900460ff160192506101000a81548160ff021916908360ff1602179055505050565b60008060008091505b60038260ff16101561181c5760038260ff1660038110151561167357fe5b01600160038110151561168257fe5b602091828204019190069054906101000a900460ff1660028111156116a357fe5b60038360ff166003811015156116b557fe5b0160006003811015156116c457fe5b602091828204019190069054906101000a900460ff1660028111156116e557fe5b148015611773575060038260ff166003811015156116ff57fe5b01600260038110151561170e57fe5b602091828204019190069054906101000a900460ff16600281111561172f57fe5b60038360ff1660038110151561174157fe5b01600160038110151561175057fe5b602091828204019190069054906101000a900460ff16600281111561177157fe5b145b80156117cc57506000600281111561178757fe5b60038360ff1660038110151561179957fe5b0160006003811015156117a857fe5b602091828204019190069054906101000a900460ff1660028111156117c957fe5b14155b1561180f5760038260ff166003811015156117e357fe5b0160006003811015156117f257fe5b602091828204019190069054906101000a900460ff169250611d31565b8180600101925050611655565b600090505b60038160ff1610156119e8576003600160038110151561183d57fe5b018160ff1660038110151561184e57fe5b602091828204019190069054906101000a900460ff16600281111561186f57fe5b6003600060038110151561187f57fe5b018260ff1660038110151561189057fe5b602091828204019190069054906101000a900460ff1660028111156118b157fe5b14801561193f5750600360026003811015156118c957fe5b018160ff166003811015156118da57fe5b602091828204019190069054906101000a900460ff1660028111156118fb57fe5b6003600160038110151561190b57fe5b018260ff1660038110151561191c57fe5b602091828204019190069054906101000a900460ff16600281111561193d57fe5b145b801561199857506000600281111561195357fe5b6003600060038110151561196357fe5b018260ff1660038110151561197457fe5b602091828204019190069054906101000a900460ff16600281111561199557fe5b14155b156119db57600360006003811015156119ad57fe5b018160ff166003811015156119be57fe5b602091828204019190069054906101000a900460ff169250611d31565b8080600101915050611821565b600360016003811015156119f857fe5b016001600381101515611a0757fe5b602091828204019190069054906101000a900460ff166002811115611a2857fe5b60036000600381101515611a3857fe5b016000600381101515611a4757fe5b602091828204019190069054906101000a900460ff166002811115611a6857fe5b148015611af2575060036002600381101515611a8057fe5b016002600381101515611a8f57fe5b602091828204019190069054906101000a900460ff166002811115611ab057fe5b60036001600381101515611ac057fe5b016001600381101515611acf57fe5b602091828204019190069054906101000a900460ff166002811115611af057fe5b145b8015611b49575060006002811115611b0657fe5b60036000600381101515611b1657fe5b016000600381101515611b2557fe5b602091828204019190069054906101000a900460ff166002811115611b4657fe5b14155b15611b8a5760036000600381101515611b5e57fe5b016000600381101515611b6d57fe5b602091828204019190069054906101000a900460ff169250611d31565b60036001600381101515611b9a57fe5b016001600381101515611ba957fe5b602091828204019190069054906101000a900460ff166002811115611bca57fe5b60036000600381101515611bda57fe5b016002600381101515611be957fe5b602091828204019190069054906101000a900460ff166002811115611c0a57fe5b148015611c94575060036002600381101515611c2257fe5b016000600381101515611c3157fe5b602091828204019190069054906101000a900460ff166002811115611c5257fe5b60036001600381101515611c6257fe5b016001600381101515611c7157fe5b602091828204019190069054906101000a900460ff166002811115611c9257fe5b145b8015611ceb575060006002811115611ca857fe5b60036000600381101515611cb857fe5b016002600381101515611cc757fe5b602091828204019190069054906101000a900460ff166002811115611ce857fe5b14155b15611d2c5760036000600381101515611d0057fe5b016002600381101515611d0f57fe5b602091828204019190069054906101000a900460ff169250611d31565b600092505b505090565b600080600060029054906101000a900473ffffffffffffffffffffffffffffffffffffffff16600160009054906101000a900473ffffffffffffffffffffffffffffffffffffffff16915091509091565b3373ffffffffffffffffffffffffffffffffffffffff16600260009054906101000a900473ffffffffffffffffffffffffffffffffffffffff1673ffffffffffffffffffffffffffffffffffffffff1614158015611e1e57506000600260009054906101000a900473ffffffffffffffffffffffffffffffffffffffff1673ffffffffffffffffffffffffffffffffffffffff1614155b1515611e2957600080fd5b670de0b6b3a764000034141515611e3f57600080fd5b60008060019054906101000a900460ff1660ff16141515611e5f57600080fd5b60008060029054906101000a900473ffffffffffffffffffffffffffffffffffffffff1673ffffffffffffffffffffffffffffffffffffffff161415611ee55733600060026101000a81548173ffffffffffffffffffffffffffffffffffffffff021916908373ffffffffffffffffffffffffffffffffffffffff160217905550611fc6565b6000600160009054906101000a900473ffffffffffffffffffffffffffffffffffffffff1673ffffffffffffffffffffffffffffffffffffffff161415611fc5573373ffffffffffffffffffffffffffffffffffffffff16600060029054906101000a900473ffffffffffffffffffffffffffffffffffffffff1673ffffffffffffffffffffffffffffffffffffffff1614151515611f8357600080fd5b33600160006101000a81548173ffffffffffffffffffffffffffffffffffffffff021916908373ffffffffffffffffffffffffffffffffffffffff1602179055505b5b5600a165627a7a72305820a61f4058f095da465741394f5ce61600920bae306d0153193d9f04fc51882f9a0029",
  "source": "pragma solidity >=0.4.24;\n\ncontract tic {\n    \n    uint8 public games;\n    uint8 public cm;\n    address p1;\n    address p2;\n    address public owner;\n\n    enum Board { Empty, X, O}\n    Board[3][3] board;\n    \n    constructor() public  {\n        // require(msg.value==1 ether);\n        // p1 = msg.sender;\n        \n        owner=msg.sender;\n        games=0;\n        cm=0;\n        for(uint8 i=0;i<3;i++)\n        {\n            for(uint8 j=0;j<3;j++)\n            {\n                board[i][j]=Board.Empty;\n            }\n        }\n    }\n    \n    function getBalance() public view returns (uint256) {\n        return address(this).balance;\n    }\n    \n    function printPlayers() public view returns(address,address){\n        return(p1,p2);\n    }\n    \n    function turn() public view returns(address) {\n        if(games == 0 || games == 1)\n        {\n            if(cm %2 ==0 )\n            return p1;\n            else\n            return p2;\n        }\n        else if(games == 2 || games ==3)\n        {\n            if(cm%2==0)\n            return p2;\n            else\n            return p1;\n        }\n    }\n    \n    function joinGame() public payable{\n        require(owner!= msg.sender && owner!=0x0);\n        require( msg.value == 1 ether);\n        require(cm==0);\n        if(p1==0)\n        p1 = msg.sender;\n        else if(p2==0)\n        {\n            require(p1!=msg.sender);\n            p2 = msg.sender;\n        }\n    }\n    \n    function startNewGame() public {\n        require(over());\n        require(games<3);\n        cm=0;\n        games+=1;\n        //owner=0x0;\n        for(uint8 i=0;i<3;i++)\n        {\n            \n            for(uint8 j=0;j<3;j++)\n            {\n                board[i][j]=Board.Empty;\n            }\n        }\n        \n        \n    }\n    \n    //Printing the board\n    \n    function printBoard() public view returns(string ) {\n        \n        return string(abi.encodePacked(\"\\n\",printrow(0),\"\\n\",printrow(1),\"\\n\",printrow(2)));\n    }\n    \n    \n    function printrow(uint8 y) public view returns(string)  {\n        \n        return string(abi.encodePacked(tostring(0,y),\"|\",tostring(1,y),\"|\",tostring(2,y)));\n    }\n    \n    function tostring(uint8 x, uint8 y) public view returns(string)\n    {\n        //require(InBounds(x,y));\n        if(board[x][y]==Board.X)\n        {\n            return \"X\";\n        }\n        if(board[x][y]==Board.O)\n        {\n            return \"O\";\n        }\n        if(board[x][y]==Board.Empty)\n        {\n            return \" \";\n        }\n    }\n    \n    function Move(uint8 x, uint8 y) public\n    {\n       \n        //require(cm<=9);\n        require(InBounds(x,y));\n        require(!over());\n        require(turn()==msg.sender);\n        \n        require(board[x][y]==Board.Empty);\n        // require(!over());\n        board[x][y] = player();\n        cm+=1;\n        \n        // if(over())\n            // startNewGame();\n\n        //return (true,cm);\n    \n        \n    }\n    \n    function InBounds(uint8 x, uint8 y) public pure returns(bool){\n     \n        return (x>=0 && x<3 && y>=0 && y<3);\n        \n        \n    }\n    \n    function player() public view returns(Board)\n    {\n        if(getCurrAdd()==p1)\n        {\n            return Board.X;\n        }\n        if(getCurrAdd()==p2)\n        {\n            return Board.O;\n        }\n    }\n    \n    function getCurrAdd() public view returns(address) {\n        return msg.sender;\n    }\n    \n    function over() public returns(bool) {\n        if(cm == 9 || Winner() != Board.Empty )\n        {\n            declareWinner();\n            // startNewGame();\n            return true;\n        }\n            \n        return false;\n        \n    }\n    \n    function declareWinner() public {\n        if(Winner()==Board.X)\n            p1.transfer(2 ether);\n        if(Winner()==Board.O)\n            p2.transfer(2 ether);\n        if(Winner()==Board.Empty){\n            owner.transfer(1 ether);\n            owner.transfer(1 ether);\n        }\n    }\n    \n    function Winner() public view returns(Board) {\n        \n        for (uint8 i = 0; i < 3; i++) {\n            if (board[i][0] == board[i][1] && board[i][1] == board[i][2] && board[i][0] != Board.Empty) {\n                return board[i][0];\n            }\n        }\n        \n        for (uint8 j = 0; j < 3; j++) {\n            if (board[0][j] == board[1][j] && board[1][j] == board[2][j] && board[0][j] != Board.Empty) {\n                return board[0][j];\n            }\n        }\n        \n        if(board[0][0] == board[1][1] && board[1][1] == board[2][2] && board[0][0] != Board.Empty)\n        {\n            return board[0][0];\n        }\n        \n        if(board[0][2] == board[1][1] && board[1][1] == board[2][0] && board[0][2] != Board.Empty)\n        {\n            return board[0][2];\n        }\n        \n        return Board.Empty;\n    }\n   //games +=  1;\n   function FinalWinner() public view returns(address) {\n       require(games==3);\n       if(p1.balance >= p2.balance && p1.balance >= owner.balance)\n       return p1;\n       else if(p2.balance >= p1.balance && p2.balance >= owner.balance)\n       return p2;\n       else\n       return owner;\n       \n   }\n}\n",
  "sourcePath": "/home/masterg/Documents/5th Semester/Blockchain/Assignment1/contracts/TicTacToe.sol",
  "compiler": {
    "name": "solc",
    "version": "0.4.24+commit.e67f0147.Emscripten.clang"
  },
  "schemaVersion": "3.0.16",
  "updatedAt": "2019-09-16T12:02:28.371Z",
  "devdoc": {
    "methods": {}
  },
  "userdoc": {
    "methods": {}
  }
}