{
  "contractName": "tic",
  "abi": [
    {
      "constant": true,
      "inputs": [],
      "name": "timecounter",
      "outputs": [
        {
          "name": "",
          "type": "uint256"
        }
      ],
      "payable": false,
      "stateMutability": "view",
      "type": "function"
    },
    {
      "constant": true,
      "inputs": [],
      "name": "owner",
      "outputs": [
        {
          "name": "",
          "type": "address"
        }
      ],
      "payable": false,
      "stateMutability": "view",
      "type": "function"
    },
    {
      "constant": true,
      "inputs": [],
      "name": "cm",
      "outputs": [
        {
          "name": "",
          "type": "uint8"
        }
      ],
      "payable": false,
      "stateMutability": "view",
      "type": "function"
    },
    {
      "constant": true,
      "inputs": [],
      "name": "games",
      "outputs": [
        {
          "name": "",
          "type": "uint8"
        }
      ],
      "payable": false,
      "stateMutability": "view",
      "type": "function"
    },
    {
      "inputs": [],
      "payable": false,
      "stateMutability": "nonpayable",
      "type": "constructor"
    },
    {
      "constant": true,
      "inputs": [],
      "name": "getBalance",
      "outputs": [
        {
          "name": "",
          "type": "uint256"
        }
      ],
      "payable": false,
      "stateMutability": "view",
      "type": "function"
    },
    {
      "constant": true,
      "inputs": [],
      "name": "printPlayers",
      "outputs": [
        {
          "name": "",
          "type": "address"
        },
        {
          "name": "",
          "type": "address"
        }
      ],
      "payable": false,
      "stateMutability": "view",
      "type": "function"
    },
    {
      "constant": true,
      "inputs": [],
      "name": "turn",
      "outputs": [
        {
          "name": "",
          "type": "address"
        }
      ],
      "payable": false,
      "stateMutability": "view",
      "type": "function"
    },
    {
      "constant": false,
      "inputs": [],
      "name": "joinGame",
      "outputs": [],
      "payable": true,
      "stateMutability": "payable",
      "type": "function"
    },
    {
      "constant": false,
      "inputs": [],
      "name": "startNewGame",
      "outputs": [],
      "payable": false,
      "stateMutability": "nonpayable",
      "type": "function"
    },
    {
      "constant": true,
      "inputs": [],
      "name": "printBoard",
      "outputs": [
        {
          "name": "",
          "type": "string"
        }
      ],
      "payable": false,
      "stateMutability": "view",
      "type": "function"
    },
    {
      "constant": true,
      "inputs": [
        {
          "name": "y",
          "type": "uint8"
        }
      ],
      "name": "printrow",
      "outputs": [
        {
          "name": "",
          "type": "string"
        }
      ],
      "payable": false,
      "stateMutability": "view",
      "type": "function"
    },
    {
      "constant": true,
      "inputs": [
        {
          "name": "x",
          "type": "uint8"
        },
        {
          "name": "y",
          "type": "uint8"
        }
      ],
      "name": "tostring",
      "outputs": [
        {
          "name": "",
          "type": "string"
        }
      ],
      "payable": false,
      "stateMutability": "view",
      "type": "function"
    },
    {
      "constant": false,
      "inputs": [
        {
          "name": "m",
          "type": "uint8"
        }
      ],
      "name": "PlayerMoves",
      "outputs": [],
      "payable": false,
      "stateMutability": "nonpayable",
      "type": "function"
    },
    {
      "constant": false,
      "inputs": [
        {
          "name": "x",
          "type": "uint8"
        },
        {
          "name": "y",
          "type": "uint8"
        }
      ],
      "name": "Move",
      "outputs": [],
      "payable": false,
      "stateMutability": "nonpayable",
      "type": "function"
    },
    {
      "constant": false,
      "inputs": [],
      "name": "claimTimeout",
      "outputs": [],
      "payable": false,
      "stateMutability": "nonpayable",
      "type": "function"
    },
    {
      "constant": true,
      "inputs": [
        {
          "name": "x",
          "type": "uint8"
        },
        {
          "name": "y",
          "type": "uint8"
        }
      ],
      "name": "InBounds",
      "outputs": [
        {
          "name": "",
          "type": "bool"
        }
      ],
      "payable": false,
      "stateMutability": "pure",
      "type": "function"
    },
    {
      "constant": true,
      "inputs": [],
      "name": "player",
      "outputs": [
        {
          "name": "",
          "type": "uint8"
        }
      ],
      "payable": false,
      "stateMutability": "view",
      "type": "function"
    },
    {
      "constant": true,
      "inputs": [],
      "name": "getCurrAdd",
      "outputs": [
        {
          "name": "",
          "type": "address"
        }
      ],
      "payable": false,
      "stateMutability": "view",
      "type": "function"
    },
    {
      "constant": true,
      "inputs": [],
      "name": "over",
      "outputs": [
        {
          "name": "",
          "type": "bool"
        }
      ],
      "payable": false,
      "stateMutability": "view",
      "type": "function"
    },
    {
      "constant": false,
      "inputs": [],
      "name": "declareWinner",
      "outputs": [],
      "payable": false,
      "stateMutability": "nonpayable",
      "type": "function"
    },
    {
      "constant": true,
      "inputs": [],
      "name": "Winner",
      "outputs": [
        {
          "name": "",
          "type": "uint8"
        }
      ],
      "payable": false,
      "stateMutability": "view",
      "type": "function"
    },
    {
      "constant": true,
      "inputs": [],
      "name": "FinalWinner",
      "outputs": [
        {
          "name": "",
          "type": "address"
        }
      ],
      "payable": false,
      "stateMutability": "view",
      "type": "function"
    }
  ],
  "bytecode": "0x60806040523480156200001157600080fd5b5060008033600260006101000a81548173ffffffffffffffffffffffffffffffffffffffff021916908373ffffffffffffffffffffffffffffffffffffffff1602179055506000600160146101000a81548160ff021916908360ff1602179055506000600160156101000a81548160ff021916908360ff16021790555060008060006101000a81548160ff021916908360ff16021790555060008060016101000a81548160ff021916908360ff160217905550600091505b60038260ff1610156200015457600090505b60038160ff1610156200014657600060048360ff16600381101515620000fd57fe5b018260ff166003811015156200010f57fe5b602091828204019190066101000a81548160ff021916908360028111156200013357fe5b02179055508080600101915050620000db565b8180600101925050620000c9565b50506121a680620001666000396000f300608060405260043610610128576000357c0100000000000000000000000000000000000000000000000000000000900463ffffffff1680630e1da6c31461012d57806312065fe01461014457806314034bd21461016f57806329a205d214610186578063354819cb146101dd57806345742b0814610286578063482d51e0146102db57806348db5f89146102f2578063750b5d171461032b57806379134f7a146103e15780637eaef50c1461043857806383691c2b146104675780638b299903146104925780638da5cb5b146104e957806393181620146105405780639454986514610571578063955a015b14610601578063a1d191cb14610632578063a60998f21461066f578063b2b98ed21461069f578063b5ad19e7146106d8578063d4f77b1c14610762575b600080fd5b34801561013957600080fd5b5061014261076c565b005b34801561015057600080fd5b5061015961091c565b6040518082815260200191505060405180910390f35b34801561017b57600080fd5b5061018461093b565b005b34801561019257600080fd5b5061019b610bcf565b604051808273ffffffffffffffffffffffffffffffffffffffff1673ffffffffffffffffffffffffffffffffffffffff16815260200191505060405180910390f35b3480156101e957600080fd5b5061020b600480360381019080803560ff169060200190929190505050610cc6565b6040518080602001828103825283818151815260200191508051906020019080838360005b8381101561024b578082015181840152602081019050610230565b50505050905090810190601f1680156102785780820380516001836020036101000a031916815260200191505b509250505060405180910390f35b34801561029257600080fd5b506102c1600480360381019080803560ff169060200190929190803560ff169060200190929190505050610e54565b604051808215151515815260200191505060405180910390f35b3480156102e757600080fd5b506102f0610e93565b005b3480156102fe57600080fd5b50610307610fa9565b6040518082600281111561031757fe5b60ff16815260200191505060405180910390f35b34801561033757600080fd5b50610366600480360381019080803560ff169060200190929190803560ff16906020019092919050505061107a565b6040518080602001828103825283818151815260200191508051906020019080838360005b838110156103a657808201518184015260208101905061038b565b50505050905090810190601f1680156103d35780820380516001836020036101000a031916815260200191505b509250505060405180910390f35b3480156103ed57600080fd5b506103f661123e565b604051808273ffffffffffffffffffffffffffffffffffffffff1673ffffffffffffffffffffffffffffffffffffffff16815260200191505060405180910390f35b34801561044457600080fd5b5061044d611246565b604051808215151515815260200191505060405180910390f35b34801561047357600080fd5b5061047c61129d565b6040518082815260200191505060405180910390f35b34801561049e57600080fd5b506104a76112a3565b604051808273ffffffffffffffffffffffffffffffffffffffff1673ffffffffffffffffffffffffffffffffffffffff16815260200191505060405180910390f35b3480156104f557600080fd5b506104fe611410565b604051808273ffffffffffffffffffffffffffffffffffffffff1673ffffffffffffffffffffffffffffffffffffffff16815260200191505060405180910390f35b34801561054c57600080fd5b50610555611436565b604051808260ff1660ff16815260200191505060405180910390f35b34801561057d57600080fd5b50610586611449565b6040518080602001828103825283818151815260200191508051906020019080838360005b838110156105c65780820151818401526020810190506105ab565b50505050905090810190601f1680156105f35780820380516001836020036101000a031916815260200191505b509250505060405180910390f35b34801561060d57600080fd5b506106166115fa565b604051808260ff1660ff16815260200191505060405180910390f35b34801561063e57600080fd5b5061066d600480360381019080803560ff169060200190929190803560ff16906020019092919050505061160c565b005b34801561067b57600080fd5b5061069d600480360381019080803560ff16906020019092919050505061178a565b005b3480156106ab57600080fd5b506106b46117fe565b604051808260028111156106c457fe5b60ff16815260200191505060405180910390f35b3480156106e457600080fd5b506106ed611ee8565b604051808373ffffffffffffffffffffffffffffffffffffffff1673ffffffffffffffffffffffffffffffffffffffff1681526020018273ffffffffffffffffffffffffffffffffffffffff1673ffffffffffffffffffffffffffffffffffffffff1681526020019250505060405180910390f35b61076a611f39565b005b6003544211151561077c57600080fd5b600060029054906101000a900473ffffffffffffffffffffffffffffffffffffffff1673ffffffffffffffffffffffffffffffffffffffff166107bd6112a3565b73ffffffffffffffffffffffffffffffffffffffff16141561084b57600160009054906101000a900473ffffffffffffffffffffffffffffffffffffffff1673ffffffffffffffffffffffffffffffffffffffff166108fc671bc16d674ec800009081150290604051600060405180830381858888f19350505050158015610849573d6000803e3d6000fd5b505b600160009054906101000a900473ffffffffffffffffffffffffffffffffffffffff1673ffffffffffffffffffffffffffffffffffffffff1661088c6112a3565b73ffffffffffffffffffffffffffffffffffffffff16141561091a57600060029054906101000a900473ffffffffffffffffffffffffffffffffffffffff1673ffffffffffffffffffffffffffffffffffffffff166108fc671bc16d674ec800009081150290604051600060405180830381858888f19350505050158015610918573d6000803e3d6000fd5b505b565b60003073ffffffffffffffffffffffffffffffffffffffff1631905090565b6001600281111561094857fe5b6109506117fe565b600281111561095b57fe5b1415610a005760018060148282829054906101000a900460ff160192506101000a81548160ff021916908360ff160217905550600060029054906101000a900473ffffffffffffffffffffffffffffffffffffffff1673ffffffffffffffffffffffffffffffffffffffff166108fc671bc16d674ec800009081150290604051600060405180830381858888f193505050501580156109fe573d6000803e3d6000fd5b505b600280811115610a0c57fe5b610a146117fe565b6002811115610a1f57fe5b1415610a535760018060158282829054906101000a900460ff160192506101000a81548160ff021916908360ff1602179055505b600160009054906101000a900473ffffffffffffffffffffffffffffffffffffffff1673ffffffffffffffffffffffffffffffffffffffff166108fc671bc16d674ec800009081150290604051600060405180830381858888f19350505050158015610ac3573d6000803e3d6000fd5b5060006002811115610ad157fe5b610ad96117fe565b6002811115610ae457fe5b1415610bcd57600260009054906101000a900473ffffffffffffffffffffffffffffffffffffffff1673ffffffffffffffffffffffffffffffffffffffff166108fc670de0b6b3a76400009081150290604051600060405180830381858888f19350505050158015610b5a573d6000803e3d6000fd5b50600260009054906101000a900473ffffffffffffffffffffffffffffffffffffffff1673ffffffffffffffffffffffffffffffffffffffff166108fc670de0b6b3a76400009081150290604051600060405180830381858888f19350505050158015610bcb573d6000803e3d6000fd5b505b565b600060036000809054906101000a900460ff1660ff16141515610bf157600080fd5b600160159054906101000a900460ff1660ff16600160149054906101000a900460ff1660ff161115610c4757600060029054906101000a900473ffffffffffffffffffffffffffffffffffffffff169050610cc3565b600160149054906101000a900460ff1660ff16600160159054906101000a900460ff1660ff161115610c9d57600160009054906101000a900473ffffffffffffffffffffffffffffffffffffffff169050610cc3565b600260009054906101000a900473ffffffffffffffffffffffffffffffffffffffff1690505b90565b6060610cd360008361107a565b610cde60018461107a565b610ce960028561107a565b6040516020018084805190602001908083835b602083101515610d215780518252602082019150602081019050602083039250610cfc565b6001836020036101000a038019825116818451168082178552505050505050905001807f207c20000000000000000000000000000000000000000000000000000000000081525060030183805190602001908083835b602083101515610d9c5780518252602082019150602081019050602083039250610d77565b6001836020036101000a038019825116818451168082178552505050505050905001807f207c20000000000000000000000000000000000000000000000000000000000081525060030182805190602001908083835b602083101515610e175780518252602082019150602081019050602083039250610df2565b6001836020036101000a03801982511681845116808217855250505050505090500193505050506040516020818303038152906040529050919050565b6000808360ff1610158015610e6c575060038360ff16105b8015610e7c575060008260ff1610155b8015610e8b575060038260ff16105b905092915050565b600080610e9e611246565b1515610ea957600080fd5b60036000809054906101000a900460ff1660ff16101515610ec957600080fd5b60008060016101000a81548160ff021916908360ff16021790555060016000808282829054906101000a900460ff160192506101000a81548160ff021916908360ff160217905550600091505b60038260ff161015610f9a57600090505b60038160ff161015610f8d57600060048360ff16600381101515610f4757fe5b018260ff16600381101515610f5857fe5b602091828204019190066101000a81548160ff02191690836002811115610f7b57fe5b02179055508080600101915050610f27565b8180600101925050610f16565b61025842016003819055505050565b60008060029054906101000a900473ffffffffffffffffffffffffffffffffffffffff1673ffffffffffffffffffffffffffffffffffffffff16610feb61123e565b73ffffffffffffffffffffffffffffffffffffffff1614156110105760019050611077565b600160009054906101000a900473ffffffffffffffffffffffffffffffffffffffff1673ffffffffffffffffffffffffffffffffffffffff1661105161123e565b73ffffffffffffffffffffffffffffffffffffffff1614156110765760029050611077565b5b90565b60606001600281111561108957fe5b60048460ff1660038110151561109b57fe5b018360ff166003811015156110ac57fe5b602091828204019190069054906101000a900460ff1660028111156110cd57fe5b1415611110576040805190810160405280600181526020017f58000000000000000000000000000000000000000000000000000000000000008152509050611238565b60028081111561111c57fe5b60048460ff1660038110151561112e57fe5b018360ff1660038110151561113f57fe5b602091828204019190069054906101000a900460ff16600281111561116057fe5b14156111a3576040805190810160405280600181526020017f4f000000000000000000000000000000000000000000000000000000000000008152509050611238565b600060028111156111b057fe5b60048460ff166003811015156111c257fe5b018360ff166003811015156111d357fe5b602091828204019190069054906101000a900460ff1660028111156111f457fe5b1415611237576040805190810160405280600181526020017f20000000000000000000000000000000000000000000000000000000000000008152509050611238565b5b92915050565b600033905090565b60006009600060019054906101000a900460ff1660ff16148061128757506000600281111561127157fe5b6112796117fe565b600281111561128457fe5b14155b15611295576001905061129a565b600090505b90565b60035481565b6000806000809054906101000a900460ff1660ff1614806112d5575060016000809054906101000a900460ff1660ff16145b156113585760006002600060019054906101000a900460ff1660ff168115156112fa57fe5b0660ff16141561132e57600060029054906101000a900473ffffffffffffffffffffffffffffffffffffffff16905061140d565b600160009054906101000a900473ffffffffffffffffffffffffffffffffffffffff16905061140d565b60026000809054906101000a900460ff1660ff161480611389575060036000809054906101000a900460ff1660ff16145b1561140c5760006002600060019054906101000a900460ff1660ff168115156113ae57fe5b0660ff1614156113e257600160009054906101000a900473ffffffffffffffffffffffffffffffffffffffff16905061140d565b600060029054906101000a900473ffffffffffffffffffffffffffffffffffffffff16905061140d565b5b90565b600260009054906101000a900473ffffffffffffffffffffffffffffffffffffffff1681565b600060019054906101000a900460ff1681565b60606114556000610cc6565b61145f6001610cc6565b6114696002610cc6565b60405160200180807f0a0000000000000000000000000000000000000000000000000000000000000081525060010184805190602001908083835b6020831015156114c957805182526020820191506020810190506020830392506114a4565b6001836020036101000a038019825116818451168082178552505050505050905001807f0a0000000000000000000000000000000000000000000000000000000000000081525060010183805190602001908083835b602083101515611544578051825260208201915060208101905060208303925061151f565b6001836020036101000a038019825116818451168082178552505050505050905001807f0a0000000000000000000000000000000000000000000000000000000000000081525060010182805190602001908083835b6020831015156115bf578051825260208201915060208101905060208303925061159a565b6001836020036101000a0380198251168184511680821785525050505050509050019350505050604051602081830303815290604052905090565b6000809054906101000a900460ff1681565b6116168282610e54565b151561162157600080fd5b611629611246565b15151561163557600080fd5b3373ffffffffffffffffffffffffffffffffffffffff166116546112a3565b73ffffffffffffffffffffffffffffffffffffffff1614151561167657600080fd5b426003541015151561168757600080fd5b6000600281111561169457fe5b60048360ff166003811015156116a657fe5b018260ff166003811015156116b757fe5b602091828204019190069054906101000a900460ff1660028111156116d857fe5b1415156116e457600080fd5b6116ec610fa9565b60048360ff166003811015156116fe57fe5b018260ff1660038110151561170f57fe5b602091828204019190066101000a81548160ff0219169083600281111561173257fe5b02179055506001600060018282829054906101000a900460ff160192506101000a81548160ff021916908360ff1602179055506102584201600381905550611778611246565b156117865761178561093b565b5b5050565b600a8160ff1610151561179c57600080fd5b60038160ff161115156117bc576117b760006001830361160c565b6117fb565b60038160ff161180156117d3575060068160ff1611155b156117eb576117e660016004830361160c565b6117fa565b6117f960026007830361160c565b5b5b50565b60008060008091505b60038260ff1610156119ce5760048260ff1660038110151561182557fe5b01600160038110151561183457fe5b602091828204019190069054906101000a900460ff16600281111561185557fe5b60048360ff1660038110151561186757fe5b01600060038110151561187657fe5b602091828204019190069054906101000a900460ff16600281111561189757fe5b148015611925575060048260ff166003811015156118b157fe5b0160026003811015156118c057fe5b602091828204019190069054906101000a900460ff1660028111156118e157fe5b60048360ff166003811015156118f357fe5b01600160038110151561190257fe5b602091828204019190069054906101000a900460ff16600281111561192357fe5b145b801561197e57506000600281111561193957fe5b60048360ff1660038110151561194b57fe5b01600060038110151561195a57fe5b602091828204019190069054906101000a900460ff16600281111561197b57fe5b14155b156119c15760048260ff1660038110151561199557fe5b0160006003811015156119a457fe5b602091828204019190069054906101000a900460ff169250611ee3565b8180600101925050611807565b600090505b60038160ff161015611b9a57600460016003811015156119ef57fe5b018160ff16600381101515611a0057fe5b602091828204019190069054906101000a900460ff166002811115611a2157fe5b60046000600381101515611a3157fe5b018260ff16600381101515611a4257fe5b602091828204019190069054906101000a900460ff166002811115611a6357fe5b148015611af1575060046002600381101515611a7b57fe5b018160ff16600381101515611a8c57fe5b602091828204019190069054906101000a900460ff166002811115611aad57fe5b60046001600381101515611abd57fe5b018260ff16600381101515611ace57fe5b602091828204019190069054906101000a900460ff166002811115611aef57fe5b145b8015611b4a575060006002811115611b0557fe5b60046000600381101515611b1557fe5b018260ff16600381101515611b2657fe5b602091828204019190069054906101000a900460ff166002811115611b4757fe5b14155b15611b8d5760046000600381101515611b5f57fe5b018160ff16600381101515611b7057fe5b602091828204019190069054906101000a900460ff169250611ee3565b80806001019150506119d3565b60046001600381101515611baa57fe5b016001600381101515611bb957fe5b602091828204019190069054906101000a900460ff166002811115611bda57fe5b60046000600381101515611bea57fe5b016000600381101515611bf957fe5b602091828204019190069054906101000a900460ff166002811115611c1a57fe5b148015611ca4575060046002600381101515611c3257fe5b016002600381101515611c4157fe5b602091828204019190069054906101000a900460ff166002811115611c6257fe5b60046001600381101515611c7257fe5b016001600381101515611c8157fe5b602091828204019190069054906101000a900460ff166002811115611ca257fe5b145b8015611cfb575060006002811115611cb857fe5b60046000600381101515611cc857fe5b016000600381101515611cd757fe5b602091828204019190069054906101000a900460ff166002811115611cf857fe5b14155b15611d3c5760046000600381101515611d1057fe5b016000600381101515611d1f57fe5b602091828204019190069054906101000a900460ff169250611ee3565b60046001600381101515611d4c57fe5b016001600381101515611d5b57fe5b602091828204019190069054906101000a900460ff166002811115611d7c57fe5b60046000600381101515611d8c57fe5b016002600381101515611d9b57fe5b602091828204019190069054906101000a900460ff166002811115611dbc57fe5b148015611e46575060046002600381101515611dd457fe5b016000600381101515611de357fe5b602091828204019190069054906101000a900460ff166002811115611e0457fe5b60046001600381101515611e1457fe5b016001600381101515611e2357fe5b602091828204019190069054906101000a900460ff166002811115611e4457fe5b145b8015611e9d575060006002811115611e5a57fe5b60046000600381101515611e6a57fe5b016002600381101515611e7957fe5b602091828204019190069054906101000a900460ff166002811115611e9a57fe5b14155b15611ede5760046000600381101515611eb257fe5b016002600381101515611ec157fe5b602091828204019190069054906101000a900460ff169250611ee3565b600092505b505090565b600080600060029054906101000a900473ffffffffffffffffffffffffffffffffffffffff16600160009054906101000a900473ffffffffffffffffffffffffffffffffffffffff16915091509091565b3373ffffffffffffffffffffffffffffffffffffffff16600260009054906101000a900473ffffffffffffffffffffffffffffffffffffffff1673ffffffffffffffffffffffffffffffffffffffff1614158015611fd057506000600260009054906101000a900473ffffffffffffffffffffffffffffffffffffffff1673ffffffffffffffffffffffffffffffffffffffff1614155b1515611fdb57600080fd5b673782dace9d90000034141515611ff157600080fd5b60008060019054906101000a900460ff1660ff1614151561201157600080fd5b60008060029054906101000a900473ffffffffffffffffffffffffffffffffffffffff1673ffffffffffffffffffffffffffffffffffffffff1614156120975733600060026101000a81548173ffffffffffffffffffffffffffffffffffffffff021916908373ffffffffffffffffffffffffffffffffffffffff160217905550612178565b6000600160009054906101000a900473ffffffffffffffffffffffffffffffffffffffff1673ffffffffffffffffffffffffffffffffffffffff161415612177573373ffffffffffffffffffffffffffffffffffffffff16600060029054906101000a900473ffffffffffffffffffffffffffffffffffffffff1673ffffffffffffffffffffffffffffffffffffffff161415151561213557600080fd5b33600160006101000a81548173ffffffffffffffffffffffffffffffffffffffff021916908373ffffffffffffffffffffffffffffffffffffffff1602179055505b5b5600a165627a7a72305820dfda31ac3f2435705b4228e851cd06df07484764301b377d511b5e4e2ce4b5820029",
  "source": "pragma solidity >=0.4.24;\n\ncontract tic {\n    \n    uint8 public games;\n    uint8 public cm;\n    address p1;\n    address p2;\n    uint8 p1_wins;\n    uint8 p2_wins;\n    address public owner;\n    uint public timecounter;\n\n    enum Board { Empty, X, O}\n    Board[3][3] board;\n    \n    constructor() public  {\n        // require(msg.value==1 ether);\n        // p1 = msg.sender;\n        \n        owner=msg.sender;\n        p1_wins=0;\n        p2_wins=0;\n        games=0;\n        cm=0;\n        for(uint8 i=0;i<3;i++)\n        {\n            for(uint8 j=0;j<3;j++)\n            {\n                board[i][j]=Board.Empty;\n            }\n        }\n        \n    }\n    \n    function getBalance() public view returns (uint256) {\n        return address(this).balance;\n    }\n    \n    function printPlayers() public view returns(address,address){\n        return(p1,p2);\n    }\n    \n    function turn() public view returns(address) {\n        if(games == 0 || games == 1)\n        {\n            if(cm %2 ==0 )\n            return p1;\n            else\n            return p2;\n        }\n        else if(games == 2 || games ==3)\n        {\n            if(cm%2==0)\n            return p2;\n            else\n            return p1;\n        }\n    }\n    \n    function joinGame() public payable{\n        require(owner!= msg.sender && owner!=0x0);\n        require( msg.value == 4 ether);\n        require(cm==0);\n        if(p1==0)\n        p1 = msg.sender;\n        else if(p2==0)\n        {\n            require(p1!=msg.sender);\n            p2 = msg.sender;\n        }\n    }\n    \n    function startNewGame() public {\n        require(over());\n        require(games<3);\n        cm=0;\n        games+=1;\n        //owner=0x0;\n        for(uint8 i=0;i<3;i++)\n        {\n            \n            for(uint8 j=0;j<3;j++)\n            {\n                board[i][j]=Board.Empty;\n            }\n        }\n        timecounter = now + 10 minutes;\n        \n    }\n    \n    //Printing the board\n    \n    function printBoard() public view returns(string ) {\n        \n        return string(abi.encodePacked(\"\\n\",printrow(0),\"\\n\",printrow(1),\"\\n\",printrow(2)));\n    }   \n    \n    \n    function printrow(uint8 y) public view returns(string)  {\n        \n        return string(abi.encodePacked(tostring(0,y),\" | \",tostring(1,y),\" | \",tostring(2,y)));\n    }\n    \n    function tostring(uint8 x, uint8 y) public view returns(string)\n    {\n        //require(InBounds(x,y));\n        if(board[x][y]==Board.X)\n        {\n            return \"X\";\n        }\n        if(board[x][y]==Board.O)\n        {\n            return \"O\";\n        }\n        if(board[x][y]==Board.Empty)\n        {\n            return \" \";\n        }\n    }\n    \n    function PlayerMoves(uint8 m) public {\n        require(m<10);\n        if(m<=3)\n        {\n            Move(0,m-1);\n        }\n        else if(m > 3 && m<=6)\n        {\n            Move(1,m-4);\n        }\n        else\n        {\n            Move(2,m-7);\n        }\n    }\n    \n    function Move(uint8 x, uint8 y) public\n    {\n       \n        //require(cm<=9);\n        require(InBounds(x,y));\n        require(!over());\n        require(turn()==msg.sender);\n        require(timecounter >= now);\n        require(board[x][y]==Board.Empty);\n        // require(!over());\n        board[x][y] = player();\n        cm+=1;\n        timecounter = now + 10 minutes;\n        \n        if(over())\n            declareWinner();\n\n        //return (true,cm);\n    \n        \n    }\n    \n    function claimTimeout() public{\n        require(now>timecounter);\n        if(turn()==p1){\n            p2.transfer(2 ether);\n        }\n        if(turn()==p2){\n            p1.transfer(2 ether);\n        }\n    }\n    \n    function InBounds(uint8 x, uint8 y) public pure returns(bool){\n     \n        return (x>=0 && x<3 && y>=0 && y<3);\n        \n        \n    }\n    \n    function player() public view returns(Board)\n    {\n        if(getCurrAdd()==p1)\n        {\n            return Board.X;\n        }\n        if(getCurrAdd()==p2)\n        {\n            return Board.O;\n        }\n    }\n    \n    function getCurrAdd() public view returns(address) {\n        return msg.sender;\n    }\n    \n    function over() public view returns(bool) {\n        if(cm == 9 || Winner() != Board.Empty )\n        {\n            return true;\n        }\n            \n        return false;\n        \n    }\n    \n    function declareWinner() public {\n        if(Winner()==Board.X){\n            p1_wins+=1;\n            p1.transfer(2 ether);\n        }\n        if(Winner()==Board.O)\n            p2_wins+=1;\n            p2.transfer(2 ether);\n        if(Winner()==Board.Empty){\n            owner.transfer(1 ether);\n            owner.transfer(1 ether);\n        }\n    }\n    \n    function Winner() public view returns(Board) {\n        \n        for (uint8 i = 0; i < 3; i++) {\n            if (board[i][0] == board[i][1] && board[i][1] == board[i][2] && board[i][0] != Board.Empty) {\n                return board[i][0];\n            }\n        }\n        \n        for (uint8 j = 0; j < 3; j++) {\n            if (board[0][j] == board[1][j] && board[1][j] == board[2][j] && board[0][j] != Board.Empty) {\n                return board[0][j];\n            }\n        }\n        \n        if(board[0][0] == board[1][1] && board[1][1] == board[2][2] && board[0][0] != Board.Empty)\n        {\n            return board[0][0];\n        }\n        \n        if(board[0][2] == board[1][1] && board[1][1] == board[2][0] && board[0][2] != Board.Empty)\n        {\n            return board[0][2];\n        }\n        \n        return Board.Empty;\n    }\n   //games +=  1;\n   function FinalWinner() public view returns(address) {\n       require(games==3);\n       if(p1_wins > p2_wins)\n       return p1;\n       else if(p2_wins > p1_wins)\n       return p2;\n       else\n       return owner;\n   }\n}\n",
  "sourcePath": "/home/masterg/Documents/5th Semester/Blockchain/Assignment1/contracts/TicTacToe.sol",
  "compiler": {
    "name": "solc",
    "version": "0.4.24+commit.e67f0147.Emscripten.clang"
  },
  "schemaVersion": "3.0.16",
  "updatedAt": "2019-09-17T14:31:49.882Z",
  "devdoc": {
    "methods": {}
  },
  "userdoc": {
    "methods": {}
  }
}