{
  "contractName": "tic",
  "abi": [
    {
      "constant": true,
      "inputs": [],
      "name": "owner",
      "outputs": [
        {
          "name": "",
          "type": "address"
        }
      ],
      "payable": false,
      "stateMutability": "view",
      "type": "function"
    },
    {
      "constant": true,
      "inputs": [],
      "name": "cm",
      "outputs": [
        {
          "name": "",
          "type": "uint8"
        }
      ],
      "payable": false,
      "stateMutability": "view",
      "type": "function"
    },
    {
      "constant": true,
      "inputs": [],
      "name": "games",
      "outputs": [
        {
          "name": "",
          "type": "uint8"
        }
      ],
      "payable": false,
      "stateMutability": "view",
      "type": "function"
    },
    {
      "inputs": [],
      "payable": false,
      "stateMutability": "nonpayable",
      "type": "constructor"
    },
    {
      "constant": true,
      "inputs": [],
      "name": "getBalance",
      "outputs": [
        {
          "name": "",
          "type": "uint256"
        }
      ],
      "payable": false,
      "stateMutability": "view",
      "type": "function"
    },
    {
      "constant": true,
      "inputs": [],
      "name": "printPlayers",
      "outputs": [
        {
          "name": "",
          "type": "address"
        },
        {
          "name": "",
          "type": "address"
        }
      ],
      "payable": false,
      "stateMutability": "view",
      "type": "function"
    },
    {
      "constant": true,
      "inputs": [],
      "name": "turn",
      "outputs": [
        {
          "name": "",
          "type": "address"
        }
      ],
      "payable": false,
      "stateMutability": "view",
      "type": "function"
    },
    {
      "constant": false,
      "inputs": [],
      "name": "joinGame",
      "outputs": [],
      "payable": true,
      "stateMutability": "payable",
      "type": "function"
    },
    {
      "constant": false,
      "inputs": [],
      "name": "startNewGame",
      "outputs": [],
      "payable": false,
      "stateMutability": "nonpayable",
      "type": "function"
    },
    {
      "constant": true,
      "inputs": [],
      "name": "printBoard",
      "outputs": [
        {
          "name": "",
          "type": "string"
        }
      ],
      "payable": false,
      "stateMutability": "view",
      "type": "function"
    },
    {
      "constant": true,
      "inputs": [
        {
          "name": "y",
          "type": "uint8"
        }
      ],
      "name": "printrow",
      "outputs": [
        {
          "name": "",
          "type": "string"
        }
      ],
      "payable": false,
      "stateMutability": "view",
      "type": "function"
    },
    {
      "constant": true,
      "inputs": [
        {
          "name": "x",
          "type": "uint8"
        },
        {
          "name": "y",
          "type": "uint8"
        }
      ],
      "name": "tostring",
      "outputs": [
        {
          "name": "",
          "type": "string"
        }
      ],
      "payable": false,
      "stateMutability": "view",
      "type": "function"
    },
    {
      "constant": false,
      "inputs": [
        {
          "name": "m",
          "type": "uint8"
        }
      ],
      "name": "PlayerMoves",
      "outputs": [],
      "payable": false,
      "stateMutability": "nonpayable",
      "type": "function"
    },
    {
      "constant": false,
      "inputs": [
        {
          "name": "x",
          "type": "uint8"
        },
        {
          "name": "y",
          "type": "uint8"
        }
      ],
      "name": "Move",
      "outputs": [],
      "payable": false,
      "stateMutability": "nonpayable",
      "type": "function"
    },
    {
      "constant": true,
      "inputs": [
        {
          "name": "x",
          "type": "uint8"
        },
        {
          "name": "y",
          "type": "uint8"
        }
      ],
      "name": "InBounds",
      "outputs": [
        {
          "name": "",
          "type": "bool"
        }
      ],
      "payable": false,
      "stateMutability": "pure",
      "type": "function"
    },
    {
      "constant": true,
      "inputs": [],
      "name": "player",
      "outputs": [
        {
          "name": "",
          "type": "uint8"
        }
      ],
      "payable": false,
      "stateMutability": "view",
      "type": "function"
    },
    {
      "constant": true,
      "inputs": [],
      "name": "getCurrAdd",
      "outputs": [
        {
          "name": "",
          "type": "address"
        }
      ],
      "payable": false,
      "stateMutability": "view",
      "type": "function"
    },
    {
      "constant": true,
      "inputs": [],
      "name": "over",
      "outputs": [
        {
          "name": "",
          "type": "bool"
        }
      ],
      "payable": false,
      "stateMutability": "view",
      "type": "function"
    },
    {
      "constant": false,
      "inputs": [],
      "name": "declareWinner",
      "outputs": [],
      "payable": false,
      "stateMutability": "nonpayable",
      "type": "function"
    },
    {
      "constant": true,
      "inputs": [],
      "name": "Winner",
      "outputs": [
        {
          "name": "",
          "type": "uint8"
        }
      ],
      "payable": false,
      "stateMutability": "view",
      "type": "function"
    },
    {
      "constant": true,
      "inputs": [],
      "name": "FinalWinner",
      "outputs": [
        {
          "name": "",
          "type": "address"
        }
      ],
      "payable": false,
      "stateMutability": "view",
      "type": "function"
    }
  ],
  "bytecode": "0x60806040523480156200001157600080fd5b5060008033600260006101000a81548173ffffffffffffffffffffffffffffffffffffffff021916908373ffffffffffffffffffffffffffffffffffffffff16021790555060008060006101000a81548160ff021916908360ff16021790555060008060016101000a81548160ff021916908360ff160217905550600091505b60038260ff1610156200011c57600090505b60038160ff1610156200010e57600060038360ff16600381101515620000c557fe5b018260ff16600381101515620000d757fe5b602091828204019190066101000a81548160ff02191690836002811115620000fb57fe5b02179055508080600101915050620000a3565b818060010192505062000091565b50506120b1806200012e6000396000f300608060405260043610610112576000357c0100000000000000000000000000000000000000000000000000000000900463ffffffff16806312065fe01461011757806314034bd21461014257806329a205d214610159578063354819cb146101b057806345742b0814610259578063482d51e0146102ae57806348db5f89146102c5578063750b5d17146102fe57806379134f7a146103b45780637eaef50c1461040b5780638b2999031461043a5780638da5cb5b1461049157806393181620146104e85780639454986514610519578063955a015b146105a9578063a1d191cb146105da578063a60998f214610617578063b2b98ed214610647578063b5ad19e714610680578063d4f77b1c1461070a575b600080fd5b34801561012357600080fd5b5061012c610714565b6040518082815260200191505060405180910390f35b34801561014e57600080fd5b50610157610733565b005b34801561016557600080fd5b5061016e61096d565b604051808273ffffffffffffffffffffffffffffffffffffffff1673ffffffffffffffffffffffffffffffffffffffff16815260200191505060405180910390f35b3480156101bc57600080fd5b506101de600480360381019080803560ff169060200190929190505050610bfe565b6040518080602001828103825283818151815260200191508051906020019080838360005b8381101561021e578082015181840152602081019050610203565b50505050905090810190601f16801561024b5780820380516001836020036101000a031916815260200191505b509250505060405180910390f35b34801561026557600080fd5b50610294600480360381019080803560ff169060200190929190803560ff169060200190929190505050610d8c565b604051808215151515815260200191505060405180910390f35b3480156102ba57600080fd5b506102c3610dcb565b005b3480156102d157600080fd5b506102da610ed6565b604051808260028111156102ea57fe5b60ff16815260200191505060405180910390f35b34801561030a57600080fd5b50610339600480360381019080803560ff169060200190929190803560ff169060200190929190505050610fa7565b6040518080602001828103825283818151815260200191508051906020019080838360005b8381101561037957808201518184015260208101905061035e565b50505050905090810190601f1680156103a65780820380516001836020036101000a031916815260200191505b509250505060405180910390f35b3480156103c057600080fd5b506103c961116b565b604051808273ffffffffffffffffffffffffffffffffffffffff1673ffffffffffffffffffffffffffffffffffffffff16815260200191505060405180910390f35b34801561041757600080fd5b50610420611173565b604051808215151515815260200191505060405180910390f35b34801561044657600080fd5b5061044f6111ca565b604051808273ffffffffffffffffffffffffffffffffffffffff1673ffffffffffffffffffffffffffffffffffffffff16815260200191505060405180910390f35b34801561049d57600080fd5b506104a6611337565b604051808273ffffffffffffffffffffffffffffffffffffffff1673ffffffffffffffffffffffffffffffffffffffff16815260200191505060405180910390f35b3480156104f457600080fd5b506104fd61135d565b604051808260ff1660ff16815260200191505060405180910390f35b34801561052557600080fd5b5061052e611370565b6040518080602001828103825283818151815260200191508051906020019080838360005b8381101561056e578082015181840152602081019050610553565b50505050905090810190601f16801561059b5780820380516001836020036101000a031916815260200191505b509250505060405180910390f35b3480156105b557600080fd5b506105be611521565b604051808260ff1660ff16815260200191505060405180910390f35b3480156105e657600080fd5b50610615600480360381019080803560ff169060200190929190803560ff169060200190929190505050611533565b005b34801561062357600080fd5b50610645600480360381019080803560ff169060200190929190505050611695565b005b34801561065357600080fd5b5061065c611709565b6040518082600281111561066c57fe5b60ff16815260200191505060405180910390f35b34801561068c57600080fd5b50610695611df3565b604051808373ffffffffffffffffffffffffffffffffffffffff1673ffffffffffffffffffffffffffffffffffffffff1681526020018273ffffffffffffffffffffffffffffffffffffffff1673ffffffffffffffffffffffffffffffffffffffff1681526020019250505060405180910390f35b610712611e44565b005b60003073ffffffffffffffffffffffffffffffffffffffff1631905090565b6001600281111561074057fe5b610748611709565b600281111561075357fe5b14156107cb57600060029054906101000a900473ffffffffffffffffffffffffffffffffffffffff1673ffffffffffffffffffffffffffffffffffffffff166108fc671bc16d674ec800009081150290604051600060405180830381858888f193505050501580156107c9573d6000803e3d6000fd5b505b6002808111156107d757fe5b6107df611709565b60028111156107ea57fe5b141561086257600160009054906101000a900473ffffffffffffffffffffffffffffffffffffffff1673ffffffffffffffffffffffffffffffffffffffff166108fc671bc16d674ec800009081150290604051600060405180830381858888f19350505050158015610860573d6000803e3d6000fd5b505b6000600281111561086f57fe5b610877611709565b600281111561088257fe5b141561096b57600260009054906101000a900473ffffffffffffffffffffffffffffffffffffffff1673ffffffffffffffffffffffffffffffffffffffff166108fc670de0b6b3a76400009081150290604051600060405180830381858888f193505050501580156108f8573d6000803e3d6000fd5b50600260009054906101000a900473ffffffffffffffffffffffffffffffffffffffff1673ffffffffffffffffffffffffffffffffffffffff166108fc670de0b6b3a76400009081150290604051600060405180830381858888f19350505050158015610969573d6000803e3d6000fd5b505b565b600060036000809054906101000a900460ff1660ff1614151561098f57600080fd5b600160009054906101000a900473ffffffffffffffffffffffffffffffffffffffff1673ffffffffffffffffffffffffffffffffffffffff1631600060029054906101000a900473ffffffffffffffffffffffffffffffffffffffff1673ffffffffffffffffffffffffffffffffffffffff163110158015610a835750600260009054906101000a900473ffffffffffffffffffffffffffffffffffffffff1673ffffffffffffffffffffffffffffffffffffffff1631600060029054906101000a900473ffffffffffffffffffffffffffffffffffffffff1673ffffffffffffffffffffffffffffffffffffffff163110155b15610ab257600060029054906101000a900473ffffffffffffffffffffffffffffffffffffffff169050610bfb565b600060029054906101000a900473ffffffffffffffffffffffffffffffffffffffff1673ffffffffffffffffffffffffffffffffffffffff1631600160009054906101000a900473ffffffffffffffffffffffffffffffffffffffff1673ffffffffffffffffffffffffffffffffffffffff163110158015610ba65750600260009054906101000a900473ffffffffffffffffffffffffffffffffffffffff1673ffffffffffffffffffffffffffffffffffffffff1631600160009054906101000a900473ffffffffffffffffffffffffffffffffffffffff1673ffffffffffffffffffffffffffffffffffffffff163110155b15610bd557600160009054906101000a900473ffffffffffffffffffffffffffffffffffffffff169050610bfb565b600260009054906101000a900473ffffffffffffffffffffffffffffffffffffffff1690505b90565b6060610c0b600083610fa7565b610c16600184610fa7565b610c21600285610fa7565b6040516020018084805190602001908083835b602083101515610c595780518252602082019150602081019050602083039250610c34565b6001836020036101000a038019825116818451168082178552505050505050905001807f207c20000000000000000000000000000000000000000000000000000000000081525060030183805190602001908083835b602083101515610cd45780518252602082019150602081019050602083039250610caf565b6001836020036101000a038019825116818451168082178552505050505050905001807f207c20000000000000000000000000000000000000000000000000000000000081525060030182805190602001908083835b602083101515610d4f5780518252602082019150602081019050602083039250610d2a565b6001836020036101000a03801982511681845116808217855250505050505090500193505050506040516020818303038152906040529050919050565b6000808360ff1610158015610da4575060038360ff16105b8015610db4575060008260ff1610155b8015610dc3575060038260ff16105b905092915050565b600080610dd6611173565b1515610de157600080fd5b60036000809054906101000a900460ff1660ff16101515610e0157600080fd5b60008060016101000a81548160ff021916908360ff16021790555060016000808282829054906101000a900460ff160192506101000a81548160ff021916908360ff160217905550600091505b60038260ff161015610ed257600090505b60038160ff161015610ec557600060038360ff16600381101515610e7f57fe5b018260ff16600381101515610e9057fe5b602091828204019190066101000a81548160ff02191690836002811115610eb357fe5b02179055508080600101915050610e5f565b8180600101925050610e4e565b5050565b60008060029054906101000a900473ffffffffffffffffffffffffffffffffffffffff1673ffffffffffffffffffffffffffffffffffffffff16610f1861116b565b73ffffffffffffffffffffffffffffffffffffffff161415610f3d5760019050610fa4565b600160009054906101000a900473ffffffffffffffffffffffffffffffffffffffff1673ffffffffffffffffffffffffffffffffffffffff16610f7e61116b565b73ffffffffffffffffffffffffffffffffffffffff161415610fa35760029050610fa4565b5b90565b606060016002811115610fb657fe5b60038460ff16600381101515610fc857fe5b018360ff16600381101515610fd957fe5b602091828204019190069054906101000a900460ff166002811115610ffa57fe5b141561103d576040805190810160405280600181526020017f58000000000000000000000000000000000000000000000000000000000000008152509050611165565b60028081111561104957fe5b60038460ff1660038110151561105b57fe5b018360ff1660038110151561106c57fe5b602091828204019190069054906101000a900460ff16600281111561108d57fe5b14156110d0576040805190810160405280600181526020017f4f000000000000000000000000000000000000000000000000000000000000008152509050611165565b600060028111156110dd57fe5b60038460ff166003811015156110ef57fe5b018360ff1660038110151561110057fe5b602091828204019190069054906101000a900460ff16600281111561112157fe5b1415611164576040805190810160405280600181526020017f20000000000000000000000000000000000000000000000000000000000000008152509050611165565b5b92915050565b600033905090565b60006009600060019054906101000a900460ff1660ff1614806111b457506000600281111561119e57fe5b6111a6611709565b60028111156111b157fe5b14155b156111c257600190506111c7565b600090505b90565b6000806000809054906101000a900460ff1660ff1614806111fc575060016000809054906101000a900460ff1660ff16145b1561127f5760006002600060019054906101000a900460ff1660ff1681151561122157fe5b0660ff16141561125557600060029054906101000a900473ffffffffffffffffffffffffffffffffffffffff169050611334565b600160009054906101000a900473ffffffffffffffffffffffffffffffffffffffff169050611334565b60026000809054906101000a900460ff1660ff1614806112b0575060036000809054906101000a900460ff1660ff16145b156113335760006002600060019054906101000a900460ff1660ff168115156112d557fe5b0660ff16141561130957600160009054906101000a900473ffffffffffffffffffffffffffffffffffffffff169050611334565b600060029054906101000a900473ffffffffffffffffffffffffffffffffffffffff169050611334565b5b90565b600260009054906101000a900473ffffffffffffffffffffffffffffffffffffffff1681565b600060019054906101000a900460ff1681565b606061137c6000610bfe565b6113866001610bfe565b6113906002610bfe565b60405160200180807f0a0000000000000000000000000000000000000000000000000000000000000081525060010184805190602001908083835b6020831015156113f057805182526020820191506020810190506020830392506113cb565b6001836020036101000a038019825116818451168082178552505050505050905001807f0a0000000000000000000000000000000000000000000000000000000000000081525060010183805190602001908083835b60208310151561146b5780518252602082019150602081019050602083039250611446565b6001836020036101000a038019825116818451168082178552505050505050905001807f0a0000000000000000000000000000000000000000000000000000000000000081525060010182805190602001908083835b6020831015156114e657805182526020820191506020810190506020830392506114c1565b6001836020036101000a0380198251168184511680821785525050505050509050019350505050604051602081830303815290604052905090565b6000809054906101000a900460ff1681565b61153d8282610d8c565b151561154857600080fd5b611550611173565b15151561155c57600080fd5b3373ffffffffffffffffffffffffffffffffffffffff1661157b6111ca565b73ffffffffffffffffffffffffffffffffffffffff1614151561159d57600080fd5b600060028111156115aa57fe5b60038360ff166003811015156115bc57fe5b018260ff166003811015156115cd57fe5b602091828204019190069054906101000a900460ff1660028111156115ee57fe5b1415156115fa57600080fd5b611602610ed6565b60038360ff1660038110151561161457fe5b018260ff1660038110151561162557fe5b602091828204019190066101000a81548160ff0219169083600281111561164857fe5b02179055506001600060018282829054906101000a900460ff160192506101000a81548160ff021916908360ff160217905550611683611173565b1561169157611690610733565b5b5050565b600a8160ff161015156116a757600080fd5b60038160ff161115156116c7576116c2600060018303611533565b611706565b60038160ff161180156116de575060068160ff1611155b156116f6576116f1600160048303611533565b611705565b611704600260078303611533565b5b5b50565b60008060008091505b60038260ff1610156118d95760038260ff1660038110151561173057fe5b01600160038110151561173f57fe5b602091828204019190069054906101000a900460ff16600281111561176057fe5b60038360ff1660038110151561177257fe5b01600060038110151561178157fe5b602091828204019190069054906101000a900460ff1660028111156117a257fe5b148015611830575060038260ff166003811015156117bc57fe5b0160026003811015156117cb57fe5b602091828204019190069054906101000a900460ff1660028111156117ec57fe5b60038360ff166003811015156117fe57fe5b01600160038110151561180d57fe5b602091828204019190069054906101000a900460ff16600281111561182e57fe5b145b801561188957506000600281111561184457fe5b60038360ff1660038110151561185657fe5b01600060038110151561186557fe5b602091828204019190069054906101000a900460ff16600281111561188657fe5b14155b156118cc5760038260ff166003811015156118a057fe5b0160006003811015156118af57fe5b602091828204019190069054906101000a900460ff169250611dee565b8180600101925050611712565b600090505b60038160ff161015611aa557600360016003811015156118fa57fe5b018160ff1660038110151561190b57fe5b602091828204019190069054906101000a900460ff16600281111561192c57fe5b6003600060038110151561193c57fe5b018260ff1660038110151561194d57fe5b602091828204019190069054906101000a900460ff16600281111561196e57fe5b1480156119fc57506003600260038110151561198657fe5b018160ff1660038110151561199757fe5b602091828204019190069054906101000a900460ff1660028111156119b857fe5b600360016003811015156119c857fe5b018260ff166003811015156119d957fe5b602091828204019190069054906101000a900460ff1660028111156119fa57fe5b145b8015611a55575060006002811115611a1057fe5b60036000600381101515611a2057fe5b018260ff16600381101515611a3157fe5b602091828204019190069054906101000a900460ff166002811115611a5257fe5b14155b15611a985760036000600381101515611a6a57fe5b018160ff16600381101515611a7b57fe5b602091828204019190069054906101000a900460ff169250611dee565b80806001019150506118de565b60036001600381101515611ab557fe5b016001600381101515611ac457fe5b602091828204019190069054906101000a900460ff166002811115611ae557fe5b60036000600381101515611af557fe5b016000600381101515611b0457fe5b602091828204019190069054906101000a900460ff166002811115611b2557fe5b148015611baf575060036002600381101515611b3d57fe5b016002600381101515611b4c57fe5b602091828204019190069054906101000a900460ff166002811115611b6d57fe5b60036001600381101515611b7d57fe5b016001600381101515611b8c57fe5b602091828204019190069054906101000a900460ff166002811115611bad57fe5b145b8015611c06575060006002811115611bc357fe5b60036000600381101515611bd357fe5b016000600381101515611be257fe5b602091828204019190069054906101000a900460ff166002811115611c0357fe5b14155b15611c475760036000600381101515611c1b57fe5b016000600381101515611c2a57fe5b602091828204019190069054906101000a900460ff169250611dee565b60036001600381101515611c5757fe5b016001600381101515611c6657fe5b602091828204019190069054906101000a900460ff166002811115611c8757fe5b60036000600381101515611c9757fe5b016002600381101515611ca657fe5b602091828204019190069054906101000a900460ff166002811115611cc757fe5b148015611d51575060036002600381101515611cdf57fe5b016000600381101515611cee57fe5b602091828204019190069054906101000a900460ff166002811115611d0f57fe5b60036001600381101515611d1f57fe5b016001600381101515611d2e57fe5b602091828204019190069054906101000a900460ff166002811115611d4f57fe5b145b8015611da8575060006002811115611d6557fe5b60036000600381101515611d7557fe5b016002600381101515611d8457fe5b602091828204019190069054906101000a900460ff166002811115611da557fe5b14155b15611de95760036000600381101515611dbd57fe5b016002600381101515611dcc57fe5b602091828204019190069054906101000a900460ff169250611dee565b600092505b505090565b600080600060029054906101000a900473ffffffffffffffffffffffffffffffffffffffff16600160009054906101000a900473ffffffffffffffffffffffffffffffffffffffff16915091509091565b3373ffffffffffffffffffffffffffffffffffffffff16600260009054906101000a900473ffffffffffffffffffffffffffffffffffffffff1673ffffffffffffffffffffffffffffffffffffffff1614158015611edb57506000600260009054906101000a900473ffffffffffffffffffffffffffffffffffffffff1673ffffffffffffffffffffffffffffffffffffffff1614155b1515611ee657600080fd5b673782dace9d90000034141515611efc57600080fd5b60008060019054906101000a900460ff1660ff16141515611f1c57600080fd5b60008060029054906101000a900473ffffffffffffffffffffffffffffffffffffffff1673ffffffffffffffffffffffffffffffffffffffff161415611fa25733600060026101000a81548173ffffffffffffffffffffffffffffffffffffffff021916908373ffffffffffffffffffffffffffffffffffffffff160217905550612083565b6000600160009054906101000a900473ffffffffffffffffffffffffffffffffffffffff1673ffffffffffffffffffffffffffffffffffffffff161415612082573373ffffffffffffffffffffffffffffffffffffffff16600060029054906101000a900473ffffffffffffffffffffffffffffffffffffffff1673ffffffffffffffffffffffffffffffffffffffff161415151561204057600080fd5b33600160006101000a81548173ffffffffffffffffffffffffffffffffffffffff021916908373ffffffffffffffffffffffffffffffffffffffff1602179055505b5b5600a165627a7a72305820ee8400818e421ac37e568744aa23f587292be74d167229b7c7dd891c1c13adf90029",
  "source": "pragma solidity >=0.4.24;\n\ncontract tic {\n    \n    uint8 public games;\n    uint8 public cm;\n    address p1;\n    address p2;\n    address public owner;\n\n    enum Board { Empty, X, O}\n    Board[3][3] board;\n    \n    constructor() public  {\n        // require(msg.value==1 ether);\n        // p1 = msg.sender;\n        \n        owner=msg.sender;\n        games=0;\n        cm=0;\n        for(uint8 i=0;i<3;i++)\n        {\n            for(uint8 j=0;j<3;j++)\n            {\n                board[i][j]=Board.Empty;\n            }\n        }\n    }\n    \n    function getBalance() public view returns (uint256) {\n        return address(this).balance;\n    }\n    \n    function printPlayers() public view returns(address,address){\n        return(p1,p2);\n    }\n    \n    function turn() public view returns(address) {\n        if(games == 0 || games == 1)\n        {\n            if(cm %2 ==0 )\n            return p1;\n            else\n            return p2;\n        }\n        else if(games == 2 || games ==3)\n        {\n            if(cm%2==0)\n            return p2;\n            else\n            return p1;\n        }\n    }\n    \n    function joinGame() public payable{\n        require(owner!= msg.sender && owner!=0x0);\n        require( msg.value == 4 ether);\n        require(cm==0);\n        if(p1==0)\n        p1 = msg.sender;\n        else if(p2==0)\n        {\n            require(p1!=msg.sender);\n            p2 = msg.sender;\n        }\n    }\n    \n    function startNewGame() public {\n        require(over());\n        require(games<3);\n        cm=0;\n        games+=1;\n        //owner=0x0;\n        for(uint8 i=0;i<3;i++)\n        {\n            \n            for(uint8 j=0;j<3;j++)\n            {\n                board[i][j]=Board.Empty;\n            }\n        }\n        \n        \n    }\n    \n    //Printing the board\n    \n    function printBoard() public view returns(string ) {\n        \n        return string(abi.encodePacked(\"\\n\",printrow(0),\"\\n\",printrow(1),\"\\n\",printrow(2)));\n    }\n    \n    \n    function printrow(uint8 y) public view returns(string)  {\n        \n        return string(abi.encodePacked(tostring(0,y),\" | \",tostring(1,y),\" | \",tostring(2,y)));\n    }\n    \n    function tostring(uint8 x, uint8 y) public view returns(string)\n    {\n        //require(InBounds(x,y));\n        if(board[x][y]==Board.X)\n        {\n            return \"X\";\n        }\n        if(board[x][y]==Board.O)\n        {\n            return \"O\";\n        }\n        if(board[x][y]==Board.Empty)\n        {\n            return \" \";\n        }\n    }\n    \n    function PlayerMoves(uint8 m) public {\n        require(m<10);\n        if(m<=3)\n        {\n            Move(0,m-1);\n        }\n        else if(m > 3 && m<=6)\n        {\n            Move(1,m-4);\n        }\n        else\n        {\n            Move(2,m-7);\n        }\n    }\n    \n    function Move(uint8 x, uint8 y) public\n    {\n       \n        //require(cm<=9);\n        require(InBounds(x,y));\n        require(!over());\n        require(turn()==msg.sender);\n        \n        require(board[x][y]==Board.Empty);\n        // require(!over());\n        board[x][y] = player();\n        cm+=1;\n        \n        if(over())\n            declareWinner();\n\n        //return (true,cm);\n    \n        \n    }\n    \n    function InBounds(uint8 x, uint8 y) public pure returns(bool){\n     \n        return (x>=0 && x<3 && y>=0 && y<3);\n        \n        \n    }\n    \n    function player() public view returns(Board)\n    {\n        if(getCurrAdd()==p1)\n        {\n            return Board.X;\n        }\n        if(getCurrAdd()==p2)\n        {\n            return Board.O;\n        }\n    }\n    \n    function getCurrAdd() public view returns(address) {\n        return msg.sender;\n    }\n    \n    function over() public view returns(bool) {\n        if(cm == 9 || Winner() != Board.Empty )\n        {\n            return true;\n        }\n            \n        return false;\n        \n    }\n    \n    function declareWinner() public {\n        if(Winner()==Board.X)\n            p1.transfer(2 ether);\n        if(Winner()==Board.O)\n            p2.transfer(2 ether);\n        if(Winner()==Board.Empty){\n            owner.transfer(1 ether);\n            owner.transfer(1 ether);\n        }\n    }\n    \n    function Winner() public view returns(Board) {\n        \n        for (uint8 i = 0; i < 3; i++) {\n            if (board[i][0] == board[i][1] && board[i][1] == board[i][2] && board[i][0] != Board.Empty) {\n                return board[i][0];\n            }\n        }\n        \n        for (uint8 j = 0; j < 3; j++) {\n            if (board[0][j] == board[1][j] && board[1][j] == board[2][j] && board[0][j] != Board.Empty) {\n                return board[0][j];\n            }\n        }\n        \n        if(board[0][0] == board[1][1] && board[1][1] == board[2][2] && board[0][0] != Board.Empty)\n        {\n            return board[0][0];\n        }\n        \n        if(board[0][2] == board[1][1] && board[1][1] == board[2][0] && board[0][2] != Board.Empty)\n        {\n            return board[0][2];\n        }\n        \n        return Board.Empty;\n    }\n   //games +=  1;\n   function FinalWinner() public view returns(address) {\n       require(games==3);\n       if(p1.balance >= p2.balance && p1.balance >= owner.balance)\n       return p1;\n       else if(p2.balance >= p1.balance && p2.balance >= owner.balance)\n       return p2;\n       else\n       return owner;\n       \n   }\n}\n",
  "sourcePath": "/home/masterg/Documents/5th Semester/Blockchain/Assignment1/contracts/TicTacToe.sol",
  "compiler": {
    "name": "solc",
    "version": "0.4.24+commit.e67f0147.Emscripten.clang"
  },
  "schemaVersion": "3.0.16",
  "updatedAt": "2019-09-16T19:42:57.198Z",
  "devdoc": {
    "methods": {}
  },
  "userdoc": {
    "methods": {}
  }
}