{
  "contractName": "tic",
  "abi": [
    {
      "constant": true,
      "inputs": [],
      "name": "timecounter",
      "outputs": [
        {
          "name": "",
          "type": "uint256"
        }
      ],
      "payable": false,
      "stateMutability": "view",
      "type": "function"
    },
    {
      "constant": true,
      "inputs": [],
      "name": "owner",
      "outputs": [
        {
          "name": "",
          "type": "address"
        }
      ],
      "payable": false,
      "stateMutability": "view",
      "type": "function"
    },
    {
      "constant": true,
      "inputs": [],
      "name": "cm",
      "outputs": [
        {
          "name": "",
          "type": "uint8"
        }
      ],
      "payable": false,
      "stateMutability": "view",
      "type": "function"
    },
    {
      "constant": true,
      "inputs": [],
      "name": "games",
      "outputs": [
        {
          "name": "",
          "type": "uint8"
        }
      ],
      "payable": false,
      "stateMutability": "view",
      "type": "function"
    },
    {
      "inputs": [],
      "payable": false,
      "stateMutability": "nonpayable",
      "type": "constructor"
    },
    {
      "constant": true,
      "inputs": [],
      "name": "getCurrentTime",
      "outputs": [
        {
          "name": "",
          "type": "uint256"
        }
      ],
      "payable": false,
      "stateMutability": "view",
      "type": "function"
    },
    {
      "constant": true,
      "inputs": [],
      "name": "getBalance",
      "outputs": [
        {
          "name": "",
          "type": "uint256"
        }
      ],
      "payable": false,
      "stateMutability": "view",
      "type": "function"
    },
    {
      "constant": true,
      "inputs": [],
      "name": "printPlayers",
      "outputs": [
        {
          "name": "",
          "type": "address"
        },
        {
          "name": "",
          "type": "address"
        }
      ],
      "payable": false,
      "stateMutability": "view",
      "type": "function"
    },
    {
      "constant": true,
      "inputs": [],
      "name": "turn",
      "outputs": [
        {
          "name": "",
          "type": "address"
        }
      ],
      "payable": false,
      "stateMutability": "view",
      "type": "function"
    },
    {
      "constant": false,
      "inputs": [],
      "name": "joinGame",
      "outputs": [],
      "payable": true,
      "stateMutability": "payable",
      "type": "function"
    },
    {
      "constant": false,
      "inputs": [],
      "name": "startNewGame",
      "outputs": [],
      "payable": false,
      "stateMutability": "nonpayable",
      "type": "function"
    },
    {
      "constant": true,
      "inputs": [],
      "name": "printBoard",
      "outputs": [
        {
          "name": "",
          "type": "string"
        }
      ],
      "payable": false,
      "stateMutability": "view",
      "type": "function"
    },
    {
      "constant": true,
      "inputs": [
        {
          "name": "y",
          "type": "uint8"
        }
      ],
      "name": "printrow",
      "outputs": [
        {
          "name": "",
          "type": "string"
        }
      ],
      "payable": false,
      "stateMutability": "view",
      "type": "function"
    },
    {
      "constant": true,
      "inputs": [
        {
          "name": "x",
          "type": "uint8"
        },
        {
          "name": "y",
          "type": "uint8"
        }
      ],
      "name": "tostring",
      "outputs": [
        {
          "name": "",
          "type": "string"
        }
      ],
      "payable": false,
      "stateMutability": "view",
      "type": "function"
    },
    {
      "constant": false,
      "inputs": [
        {
          "name": "m",
          "type": "uint8"
        }
      ],
      "name": "PlayerMoves",
      "outputs": [],
      "payable": false,
      "stateMutability": "nonpayable",
      "type": "function"
    },
    {
      "constant": false,
      "inputs": [
        {
          "name": "x",
          "type": "uint8"
        },
        {
          "name": "y",
          "type": "uint8"
        }
      ],
      "name": "Move",
      "outputs": [],
      "payable": false,
      "stateMutability": "nonpayable",
      "type": "function"
    },
    {
      "constant": false,
      "inputs": [],
      "name": "claimTimeout",
      "outputs": [],
      "payable": false,
      "stateMutability": "nonpayable",
      "type": "function"
    },
    {
      "constant": true,
      "inputs": [
        {
          "name": "x",
          "type": "uint8"
        },
        {
          "name": "y",
          "type": "uint8"
        }
      ],
      "name": "InBounds",
      "outputs": [
        {
          "name": "",
          "type": "bool"
        }
      ],
      "payable": false,
      "stateMutability": "pure",
      "type": "function"
    },
    {
      "constant": true,
      "inputs": [],
      "name": "player",
      "outputs": [
        {
          "name": "",
          "type": "uint8"
        }
      ],
      "payable": false,
      "stateMutability": "view",
      "type": "function"
    },
    {
      "constant": true,
      "inputs": [],
      "name": "getCurrAdd",
      "outputs": [
        {
          "name": "",
          "type": "address"
        }
      ],
      "payable": false,
      "stateMutability": "view",
      "type": "function"
    },
    {
      "constant": true,
      "inputs": [],
      "name": "over",
      "outputs": [
        {
          "name": "",
          "type": "bool"
        }
      ],
      "payable": false,
      "stateMutability": "view",
      "type": "function"
    },
    {
      "constant": false,
      "inputs": [],
      "name": "declareWinner",
      "outputs": [],
      "payable": false,
      "stateMutability": "nonpayable",
      "type": "function"
    },
    {
      "constant": true,
      "inputs": [],
      "name": "Winner",
      "outputs": [
        {
          "name": "",
          "type": "uint8"
        }
      ],
      "payable": false,
      "stateMutability": "view",
      "type": "function"
    },
    {
      "constant": true,
      "inputs": [],
      "name": "FinalWinner",
      "outputs": [
        {
          "name": "",
          "type": "address"
        }
      ],
      "payable": false,
      "stateMutability": "view",
      "type": "function"
    }
  ],
  "bytecode": "0x60806040523480156200001157600080fd5b5060008033600260006101000a81548173ffffffffffffffffffffffffffffffffffffffff021916908373ffffffffffffffffffffffffffffffffffffffff1602179055506000600160146101000a81548160ff021916908360ff1602179055506000600160156101000a81548160ff021916908360ff16021790555060008060006101000a81548160ff021916908360ff16021790555060008060016101000a81548160ff021916908360ff160217905550600091505b60038260ff1610156200015457600090505b60038160ff1610156200014657600060048360ff16600381101515620000fd57fe5b018260ff166003811015156200010f57fe5b602091828204019190066101000a81548160ff021916908360028111156200013357fe5b02179055508080600101915050620000db565b8180600101925050620000c9565b50506121de80620001666000396000f300608060405260043610610133576000357c0100000000000000000000000000000000000000000000000000000000900463ffffffff1680630e1da6c31461013857806312065fe01461014f57806314034bd21461017a57806329a205d21461019157806329cb924d146101e8578063354819cb1461021357806345742b08146102bc578063482d51e01461031157806348db5f8914610328578063750b5d171461036157806379134f7a146104175780637eaef50c1461046e57806383691c2b1461049d5780638b299903146104c85780638da5cb5b1461051f578063931816201461057657806394549865146105a7578063955a015b14610637578063a1d191cb14610668578063a60998f2146106a5578063b2b98ed2146106d5578063b5ad19e71461070e578063d4f77b1c14610798575b600080fd5b34801561014457600080fd5b5061014d6107a2565b005b34801561015b57600080fd5b50610164610952565b6040518082815260200191505060405180910390f35b34801561018657600080fd5b5061018f610971565b005b34801561019d57600080fd5b506101a6610c05565b604051808273ffffffffffffffffffffffffffffffffffffffff1673ffffffffffffffffffffffffffffffffffffffff16815260200191505060405180910390f35b3480156101f457600080fd5b506101fd610cfc565b6040518082815260200191505060405180910390f35b34801561021f57600080fd5b50610241600480360381019080803560ff169060200190929190505050610d04565b6040518080602001828103825283818151815260200191508051906020019080838360005b83811015610281578082015181840152602081019050610266565b50505050905090810190601f1680156102ae5780820380516001836020036101000a031916815260200191505b509250505060405180910390f35b3480156102c857600080fd5b506102f7600480360381019080803560ff169060200190929190803560ff169060200190929190505050610e92565b604051808215151515815260200191505060405180910390f35b34801561031d57600080fd5b50610326610ed1565b005b34801561033457600080fd5b5061033d610fe7565b6040518082600281111561034d57fe5b60ff16815260200191505060405180910390f35b34801561036d57600080fd5b5061039c600480360381019080803560ff169060200190929190803560ff1690602001909291905050506110b8565b6040518080602001828103825283818151815260200191508051906020019080838360005b838110156103dc5780820151818401526020810190506103c1565b50505050905090810190601f1680156104095780820380516001836020036101000a031916815260200191505b509250505060405180910390f35b34801561042357600080fd5b5061042c61127c565b604051808273ffffffffffffffffffffffffffffffffffffffff1673ffffffffffffffffffffffffffffffffffffffff16815260200191505060405180910390f35b34801561047a57600080fd5b50610483611284565b604051808215151515815260200191505060405180910390f35b3480156104a957600080fd5b506104b26112db565b6040518082815260200191505060405180910390f35b3480156104d457600080fd5b506104dd6112e1565b604051808273ffffffffffffffffffffffffffffffffffffffff1673ffffffffffffffffffffffffffffffffffffffff16815260200191505060405180910390f35b34801561052b57600080fd5b5061053461144e565b604051808273ffffffffffffffffffffffffffffffffffffffff1673ffffffffffffffffffffffffffffffffffffffff16815260200191505060405180910390f35b34801561058257600080fd5b5061058b611474565b604051808260ff1660ff16815260200191505060405180910390f35b3480156105b357600080fd5b506105bc611487565b6040518080602001828103825283818151815260200191508051906020019080838360005b838110156105fc5780820151818401526020810190506105e1565b50505050905090810190601f1680156106295780820380516001836020036101000a031916815260200191505b509250505060405180910390f35b34801561064357600080fd5b5061064c611638565b604051808260ff1660ff16815260200191505060405180910390f35b34801561067457600080fd5b506106a3600480360381019080803560ff169060200190929190803560ff16906020019092919050505061164a565b005b3480156106b157600080fd5b506106d3600480360381019080803560ff1690602001909291905050506117b7565b005b3480156106e157600080fd5b506106ea61182b565b604051808260028111156106fa57fe5b60ff16815260200191505060405180910390f35b34801561071a57600080fd5b50610723611f15565b604051808373ffffffffffffffffffffffffffffffffffffffff1673ffffffffffffffffffffffffffffffffffffffff1681526020018273ffffffffffffffffffffffffffffffffffffffff1673ffffffffffffffffffffffffffffffffffffffff1681526020019250505060405180910390f35b6107a0611f66565b005b600354421115156107b257600080fd5b600060029054906101000a900473ffffffffffffffffffffffffffffffffffffffff1673ffffffffffffffffffffffffffffffffffffffff166107f36112e1565b73ffffffffffffffffffffffffffffffffffffffff16141561088157600160009054906101000a900473ffffffffffffffffffffffffffffffffffffffff1673ffffffffffffffffffffffffffffffffffffffff166108fc671bc16d674ec800009081150290604051600060405180830381858888f1935050505015801561087f573d6000803e3d6000fd5b505b600160009054906101000a900473ffffffffffffffffffffffffffffffffffffffff1673ffffffffffffffffffffffffffffffffffffffff166108c26112e1565b73ffffffffffffffffffffffffffffffffffffffff16141561095057600060029054906101000a900473ffffffffffffffffffffffffffffffffffffffff1673ffffffffffffffffffffffffffffffffffffffff166108fc671bc16d674ec800009081150290604051600060405180830381858888f1935050505015801561094e573d6000803e3d6000fd5b505b565b60003073ffffffffffffffffffffffffffffffffffffffff1631905090565b6001600281111561097e57fe5b61098661182b565b600281111561099157fe5b1415610a365760018060148282829054906101000a900460ff160192506101000a81548160ff021916908360ff160217905550600060029054906101000a900473ffffffffffffffffffffffffffffffffffffffff1673ffffffffffffffffffffffffffffffffffffffff166108fc671bc16d674ec800009081150290604051600060405180830381858888f19350505050158015610a34573d6000803e3d6000fd5b505b600280811115610a4257fe5b610a4a61182b565b6002811115610a5557fe5b1415610a895760018060158282829054906101000a900460ff160192506101000a81548160ff021916908360ff1602179055505b600160009054906101000a900473ffffffffffffffffffffffffffffffffffffffff1673ffffffffffffffffffffffffffffffffffffffff166108fc671bc16d674ec800009081150290604051600060405180830381858888f19350505050158015610af9573d6000803e3d6000fd5b5060006002811115610b0757fe5b610b0f61182b565b6002811115610b1a57fe5b1415610c0357600260009054906101000a900473ffffffffffffffffffffffffffffffffffffffff1673ffffffffffffffffffffffffffffffffffffffff166108fc670de0b6b3a76400009081150290604051600060405180830381858888f19350505050158015610b90573d6000803e3d6000fd5b50600260009054906101000a900473ffffffffffffffffffffffffffffffffffffffff1673ffffffffffffffffffffffffffffffffffffffff166108fc670de0b6b3a76400009081150290604051600060405180830381858888f19350505050158015610c01573d6000803e3d6000fd5b505b565b600060036000809054906101000a900460ff1660ff16141515610c2757600080fd5b600160159054906101000a900460ff1660ff16600160149054906101000a900460ff1660ff161115610c7d57600060029054906101000a900473ffffffffffffffffffffffffffffffffffffffff169050610cf9565b600160149054906101000a900460ff1660ff16600160159054906101000a900460ff1660ff161115610cd357600160009054906101000a900473ffffffffffffffffffffffffffffffffffffffff169050610cf9565b600260009054906101000a900473ffffffffffffffffffffffffffffffffffffffff1690505b90565b600042905090565b6060610d116000836110b8565b610d1c6001846110b8565b610d276002856110b8565b6040516020018084805190602001908083835b602083101515610d5f5780518252602082019150602081019050602083039250610d3a565b6001836020036101000a038019825116818451168082178552505050505050905001807f207c20000000000000000000000000000000000000000000000000000000000081525060030183805190602001908083835b602083101515610dda5780518252602082019150602081019050602083039250610db5565b6001836020036101000a038019825116818451168082178552505050505050905001807f207c20000000000000000000000000000000000000000000000000000000000081525060030182805190602001908083835b602083101515610e555780518252602082019150602081019050602083039250610e30565b6001836020036101000a03801982511681845116808217855250505050505090500193505050506040516020818303038152906040529050919050565b6000808360ff1610158015610eaa575060038360ff16105b8015610eba575060008260ff1610155b8015610ec9575060038260ff16105b905092915050565b600080610edc611284565b1515610ee757600080fd5b60036000809054906101000a900460ff1660ff16101515610f0757600080fd5b60008060016101000a81548160ff021916908360ff16021790555060016000808282829054906101000a900460ff160192506101000a81548160ff021916908360ff160217905550600091505b60038260ff161015610fd857600090505b60038160ff161015610fcb57600060048360ff16600381101515610f8557fe5b018260ff16600381101515610f9657fe5b602091828204019190066101000a81548160ff02191690836002811115610fb957fe5b02179055508080600101915050610f65565b8180600101925050610f54565b61025842016003819055505050565b60008060029054906101000a900473ffffffffffffffffffffffffffffffffffffffff1673ffffffffffffffffffffffffffffffffffffffff1661102961127c565b73ffffffffffffffffffffffffffffffffffffffff16141561104e57600190506110b5565b600160009054906101000a900473ffffffffffffffffffffffffffffffffffffffff1673ffffffffffffffffffffffffffffffffffffffff1661108f61127c565b73ffffffffffffffffffffffffffffffffffffffff1614156110b457600290506110b5565b5b90565b6060600160028111156110c757fe5b60048460ff166003811015156110d957fe5b018360ff166003811015156110ea57fe5b602091828204019190069054906101000a900460ff16600281111561110b57fe5b141561114e576040805190810160405280600181526020017f58000000000000000000000000000000000000000000000000000000000000008152509050611276565b60028081111561115a57fe5b60048460ff1660038110151561116c57fe5b018360ff1660038110151561117d57fe5b602091828204019190069054906101000a900460ff16600281111561119e57fe5b14156111e1576040805190810160405280600181526020017f4f000000000000000000000000000000000000000000000000000000000000008152509050611276565b600060028111156111ee57fe5b60048460ff1660038110151561120057fe5b018360ff1660038110151561121157fe5b602091828204019190069054906101000a900460ff16600281111561123257fe5b1415611275576040805190810160405280600181526020017f20000000000000000000000000000000000000000000000000000000000000008152509050611276565b5b92915050565b600033905090565b60006009600060019054906101000a900460ff1660ff1614806112c55750600060028111156112af57fe5b6112b761182b565b60028111156112c257fe5b14155b156112d357600190506112d8565b600090505b90565b60035481565b6000806000809054906101000a900460ff1660ff161480611313575060016000809054906101000a900460ff1660ff16145b156113965760006002600060019054906101000a900460ff1660ff1681151561133857fe5b0660ff16141561136c57600060029054906101000a900473ffffffffffffffffffffffffffffffffffffffff16905061144b565b600160009054906101000a900473ffffffffffffffffffffffffffffffffffffffff16905061144b565b60026000809054906101000a900460ff1660ff1614806113c7575060036000809054906101000a900460ff1660ff16145b1561144a5760006002600060019054906101000a900460ff1660ff168115156113ec57fe5b0660ff16141561142057600160009054906101000a900473ffffffffffffffffffffffffffffffffffffffff16905061144b565b600060029054906101000a900473ffffffffffffffffffffffffffffffffffffffff16905061144b565b5b90565b600260009054906101000a900473ffffffffffffffffffffffffffffffffffffffff1681565b600060019054906101000a900460ff1681565b60606114936000610d04565b61149d6001610d04565b6114a76002610d04565b60405160200180807f0a0000000000000000000000000000000000000000000000000000000000000081525060010184805190602001908083835b60208310151561150757805182526020820191506020810190506020830392506114e2565b6001836020036101000a038019825116818451168082178552505050505050905001807f0a0000000000000000000000000000000000000000000000000000000000000081525060010183805190602001908083835b602083101515611582578051825260208201915060208101905060208303925061155d565b6001836020036101000a038019825116818451168082178552505050505050905001807f0a0000000000000000000000000000000000000000000000000000000000000081525060010182805190602001908083835b6020831015156115fd57805182526020820191506020810190506020830392506115d8565b6001836020036101000a0380198251168184511680821785525050505050509050019350505050604051602081830303815290604052905090565b6000809054906101000a900460ff1681565b6116548282610e92565b151561165f57600080fd5b611667611284565b15151561167357600080fd5b3373ffffffffffffffffffffffffffffffffffffffff166116926112e1565b73ffffffffffffffffffffffffffffffffffffffff161415156116b457600080fd5b600060028111156116c157fe5b60048360ff166003811015156116d357fe5b018260ff166003811015156116e457fe5b602091828204019190069054906101000a900460ff16600281111561170557fe5b14151561171157600080fd5b611719610fe7565b60048360ff1660038110151561172b57fe5b018260ff1660038110151561173c57fe5b602091828204019190066101000a81548160ff0219169083600281111561175f57fe5b02179055506001600060018282829054906101000a900460ff160192506101000a81548160ff021916908360ff16021790555061025842016003819055506117a5611284565b156117b3576117b2610971565b5b5050565b600a8160ff161015156117c957600080fd5b60038160ff161115156117e9576117e460006001830361164a565b611828565b60038160ff16118015611800575060068160ff1611155b156118185761181360016004830361164a565b611827565b61182660026007830361164a565b5b5b50565b60008060008091505b60038260ff1610156119fb5760048260ff1660038110151561185257fe5b01600160038110151561186157fe5b602091828204019190069054906101000a900460ff16600281111561188257fe5b60048360ff1660038110151561189457fe5b0160006003811015156118a357fe5b602091828204019190069054906101000a900460ff1660028111156118c457fe5b148015611952575060048260ff166003811015156118de57fe5b0160026003811015156118ed57fe5b602091828204019190069054906101000a900460ff16600281111561190e57fe5b60048360ff1660038110151561192057fe5b01600160038110151561192f57fe5b602091828204019190069054906101000a900460ff16600281111561195057fe5b145b80156119ab57506000600281111561196657fe5b60048360ff1660038110151561197857fe5b01600060038110151561198757fe5b602091828204019190069054906101000a900460ff1660028111156119a857fe5b14155b156119ee5760048260ff166003811015156119c257fe5b0160006003811015156119d157fe5b602091828204019190069054906101000a900460ff169250611f10565b8180600101925050611834565b600090505b60038160ff161015611bc75760046001600381101515611a1c57fe5b018160ff16600381101515611a2d57fe5b602091828204019190069054906101000a900460ff166002811115611a4e57fe5b60046000600381101515611a5e57fe5b018260ff16600381101515611a6f57fe5b602091828204019190069054906101000a900460ff166002811115611a9057fe5b148015611b1e575060046002600381101515611aa857fe5b018160ff16600381101515611ab957fe5b602091828204019190069054906101000a900460ff166002811115611ada57fe5b60046001600381101515611aea57fe5b018260ff16600381101515611afb57fe5b602091828204019190069054906101000a900460ff166002811115611b1c57fe5b145b8015611b77575060006002811115611b3257fe5b60046000600381101515611b4257fe5b018260ff16600381101515611b5357fe5b602091828204019190069054906101000a900460ff166002811115611b7457fe5b14155b15611bba5760046000600381101515611b8c57fe5b018160ff16600381101515611b9d57fe5b602091828204019190069054906101000a900460ff169250611f10565b8080600101915050611a00565b60046001600381101515611bd757fe5b016001600381101515611be657fe5b602091828204019190069054906101000a900460ff166002811115611c0757fe5b60046000600381101515611c1757fe5b016000600381101515611c2657fe5b602091828204019190069054906101000a900460ff166002811115611c4757fe5b148015611cd1575060046002600381101515611c5f57fe5b016002600381101515611c6e57fe5b602091828204019190069054906101000a900460ff166002811115611c8f57fe5b60046001600381101515611c9f57fe5b016001600381101515611cae57fe5b602091828204019190069054906101000a900460ff166002811115611ccf57fe5b145b8015611d28575060006002811115611ce557fe5b60046000600381101515611cf557fe5b016000600381101515611d0457fe5b602091828204019190069054906101000a900460ff166002811115611d2557fe5b14155b15611d695760046000600381101515611d3d57fe5b016000600381101515611d4c57fe5b602091828204019190069054906101000a900460ff169250611f10565b60046001600381101515611d7957fe5b016001600381101515611d8857fe5b602091828204019190069054906101000a900460ff166002811115611da957fe5b60046000600381101515611db957fe5b016002600381101515611dc857fe5b602091828204019190069054906101000a900460ff166002811115611de957fe5b148015611e73575060046002600381101515611e0157fe5b016000600381101515611e1057fe5b602091828204019190069054906101000a900460ff166002811115611e3157fe5b60046001600381101515611e4157fe5b016001600381101515611e5057fe5b602091828204019190069054906101000a900460ff166002811115611e7157fe5b145b8015611eca575060006002811115611e8757fe5b60046000600381101515611e9757fe5b016002600381101515611ea657fe5b602091828204019190069054906101000a900460ff166002811115611ec757fe5b14155b15611f0b5760046000600381101515611edf57fe5b016002600381101515611eee57fe5b602091828204019190069054906101000a900460ff169250611f10565b600092505b505090565b600080600060029054906101000a900473ffffffffffffffffffffffffffffffffffffffff16600160009054906101000a900473ffffffffffffffffffffffffffffffffffffffff16915091509091565b3373ffffffffffffffffffffffffffffffffffffffff16600260009054906101000a900473ffffffffffffffffffffffffffffffffffffffff1673ffffffffffffffffffffffffffffffffffffffff1614158015611ffd57506000600260009054906101000a900473ffffffffffffffffffffffffffffffffffffffff1673ffffffffffffffffffffffffffffffffffffffff1614155b151561200857600080fd5b673782dace9d9000003414151561201e57600080fd5b60008060019054906101000a900460ff1660ff1614151561203e57600080fd5b60008060029054906101000a900473ffffffffffffffffffffffffffffffffffffffff1673ffffffffffffffffffffffffffffffffffffffff1614156120c45733600060026101000a81548173ffffffffffffffffffffffffffffffffffffffff021916908373ffffffffffffffffffffffffffffffffffffffff1602179055506121b0565b6000600160009054906101000a900473ffffffffffffffffffffffffffffffffffffffff1673ffffffffffffffffffffffffffffffffffffffff1614156121af573373ffffffffffffffffffffffffffffffffffffffff16600060029054906101000a900473ffffffffffffffffffffffffffffffffffffffff1673ffffffffffffffffffffffffffffffffffffffff161415151561216257600080fd5b33600160006101000a81548173ffffffffffffffffffffffffffffffffffffffff021916908373ffffffffffffffffffffffffffffffffffffffff16021790555061025842016003819055505b5b5600a165627a7a7230582028c5d9ea116fcde75aee6bda1d2b60fac406ad0067c64387ab06d38015aed9150029",
  "source": "pragma solidity >=0.4.24;\n\ncontract tic {\n    \n    uint8 public games;\n    uint8 public cm;\n    address p1;\n    address p2;\n    uint8 p1_wins;\n    uint8 p2_wins;\n    address public owner;\n    uint public timecounter;\n\n    enum Board { Empty, X, O}\n    Board[3][3] board;\n    \n    constructor() public  {\n        // require(msg.value==1 ether);\n        // p1 = msg.sender;\n        \n        owner=msg.sender;\n        p1_wins=0;\n        p2_wins=0;\n        games=0;\n        cm=0;\n        for(uint8 i=0;i<3;i++)\n        {\n            for(uint8 j=0;j<3;j++)\n            {\n                board[i][j]=Board.Empty;\n            }\n        }\n        \n    }\n\n    function getCurrentTime() public view returns(uint){\n        return now;\n    }\n    \n    function getBalance() public view returns (uint256) {\n        return address(this).balance;\n    }\n    \n    function printPlayers() public view returns(address,address){\n        return(p1,p2);\n    }\n    \n    function turn() public view returns(address) {\n        if(games == 0 || games == 1)\n        {\n            if(cm %2 ==0 )\n            return p1;\n            else\n            return p2;\n        }\n        else if(games == 2 || games ==3)\n        {\n            if(cm%2==0)\n            return p2;\n            else\n            return p1;\n        }\n    }\n    \n    function joinGame() public payable{\n        require(owner!= msg.sender && owner!=0x0);\n        require( msg.value == 4 ether);\n        require(cm==0);\n        if(p1==0)\n        p1 = msg.sender;\n        else if(p2==0)\n        {\n            require(p1!=msg.sender);\n            p2 = msg.sender;\n            timecounter = now + 10 minutes;\n        }\n    }\n    \n    function startNewGame() public {\n        require(over());\n        require(games<3);\n        cm=0;\n        games+=1;\n        //owner=0x0;\n        for(uint8 i=0;i<3;i++)\n        {\n            \n            for(uint8 j=0;j<3;j++)\n            {\n                board[i][j]=Board.Empty;\n            }\n        }\n        timecounter = now + 10 minutes;\n        \n    }\n    \n    //Printing the board\n    \n    function printBoard() public view returns(string ) {\n        \n        return string(abi.encodePacked(\"\\n\",printrow(0),\"\\n\",printrow(1),\"\\n\",printrow(2)));\n    }   \n    \n    \n    function printrow(uint8 y) public view returns(string)  {\n        \n        return string(abi.encodePacked(tostring(0,y),\" | \",tostring(1,y),\" | \",tostring(2,y)));\n    }\n    \n    function tostring(uint8 x, uint8 y) public view returns(string)\n    {\n        //require(InBounds(x,y));\n        if(board[x][y]==Board.X)\n        {\n            return \"X\";\n        }\n        if(board[x][y]==Board.O)\n        {\n            return \"O\";\n        }\n        if(board[x][y]==Board.Empty)\n        {\n            return \" \";\n        }\n    }\n    \n    function PlayerMoves(uint8 m) public {\n        require(m<10);\n        if(m<=3)\n        {\n            Move(0,m-1);\n        }\n        else if(m > 3 && m<=6)\n        {\n            Move(1,m-4);\n        }\n        else\n        {\n            Move(2,m-7);\n        }\n    }\n    \n    function Move(uint8 x, uint8 y) public\n    {\n       \n        //require(cm<=9);\n        require(InBounds(x,y));\n        require(!over());\n        require(turn()==msg.sender);\n        // require(timecounter - now > 0);\n        require(board[x][y]==Board.Empty);\n        // require(!over());\n        board[x][y] = player();\n        cm+=1;\n        timecounter = now + 10 minutes;\n        \n        if(over())\n            declareWinner();\n\n        //return (true,cm);\n    \n        \n    }\n    \n    function claimTimeout() public{\n        require(now > timecounter);\n        if(turn()==p1){\n            p2.transfer(2 ether);\n        }\n        if(turn()==p2){\n            p1.transfer(2 ether);\n        }\n    }\n    \n    function InBounds(uint8 x, uint8 y) public pure returns(bool){\n     \n        return (x>=0 && x<3 && y>=0 && y<3);\n        \n        \n    }\n    \n    function player() public view returns(Board)\n    {\n        if(getCurrAdd()==p1)\n        {\n            return Board.X;\n        }\n        if(getCurrAdd()==p2)\n        {\n            return Board.O;\n        }\n    }\n    \n    function getCurrAdd() public view returns(address) {\n        return msg.sender;\n    }\n    \n    function over() public view returns(bool) {\n        if(cm == 9 || Winner() != Board.Empty )\n        {\n            return true;\n        }\n            \n        return false;\n        \n    }\n    \n    function declareWinner() public {\n        if(Winner()==Board.X){\n            p1_wins+=1;\n            p1.transfer(2 ether);\n        }\n        if(Winner()==Board.O)\n            p2_wins+=1;\n            p2.transfer(2 ether);\n        if(Winner()==Board.Empty){\n            owner.transfer(1 ether);\n            owner.transfer(1 ether);\n        }\n    }\n    \n    function Winner() public view returns(Board) {\n        \n        for (uint8 i = 0; i < 3; i++) {\n            if (board[i][0] == board[i][1] && board[i][1] == board[i][2] && board[i][0] != Board.Empty) {\n                return board[i][0];\n            }\n        }\n        \n        for (uint8 j = 0; j < 3; j++) {\n            if (board[0][j] == board[1][j] && board[1][j] == board[2][j] && board[0][j] != Board.Empty) {\n                return board[0][j];\n            }\n        }\n        \n        if(board[0][0] == board[1][1] && board[1][1] == board[2][2] && board[0][0] != Board.Empty)\n        {\n            return board[0][0];\n        }\n        \n        if(board[0][2] == board[1][1] && board[1][1] == board[2][0] && board[0][2] != Board.Empty)\n        {\n            return board[0][2];\n        }\n        \n        return Board.Empty;\n    }\n   //games +=  1;\n   function FinalWinner() public view returns(address) {\n       require(games==3);\n       if(p1_wins > p2_wins)\n       return p1;\n       else if(p2_wins > p1_wins)\n       return p2;\n       else\n       return owner;\n   }\n}\n",
  "sourcePath": "/home/masterg/Documents/5th Semester/Blockchain/Assignment1/contracts/TicTacToe.sol",
  "compiler": {
    "name": "solc",
    "version": "0.4.24+commit.e67f0147.Emscripten.clang"
  },
  "schemaVersion": "3.0.16",
  "updatedAt": "2019-09-17T15:24:01.489Z",
  "devdoc": {
    "methods": {}
  },
  "userdoc": {
    "methods": {}
  }
}